:060000000A128A11FD2E18
:100DFA0083010A128A111B2F83160317880189019E
:100E0A008312870188018B01080083160313383087
:100E1A0087150716831294008316910127309300D1
:100E2A001417941783128C118D1108000A128A1153
:100E3A0001270A128A110A128A110A270A128A112A
:100E4A00860183168601FB010B307B020318462FAD
:100E5A007B088312031386007B080A3CF8007B0890
:100E6A000A128A1163270A128A11FF30FB0AF0005C
:100E7A00F101F201F3010A128A11D5270A128A1125
:100E8A00292FFB010B307B020318602F7B080A1203
:100E9A008A117C270A128A11831286000130F30113
:100EAA00F201F100F430F0000A128A11D5270A1271
:100EBA008A11FB0A472F0A128A110028F9009E2775
:100ECA000A128A11A03098270A128A1179089827DB
:100EDA000A128A11780898270A128A11CF270A1249
:100EEA008A110B30F000F101F201F301D52FF9005C
:100EFA009E270A128A11A03098270A128A117908A5
:100F0A0098270A128A11D2270A128A11A130982721
:100F1A000A128A110030A1270A128A117508FA00EA
:100F2A00CF277A080800F500BA27750883129300BC
:100F3A000800BA2711140800F700BA270A128A1102
:100F4A009115BA270A128A1183121308F800BA27D0
:100F5A000A128A1177080319B42F9112B52F911624
:100F6A0011167808F500F60108000310831603131A
:100F7A0014190314003003180130F0001F30F10176
:100F8A001105F2007004F3007108F40073040319E8
:100F9A000800BA2FBA2711150800BA2791140800B9
:100FAA00F401F40AF501F601F70177087302031D4B
:100FBA00E82F76087202031DE82F75087102031DD7
:100FCA00E82F74087002031C0800F5270A128A1118
:100FDA00F40A0319F50A0319F60A0319F70ADA2FAC
:100FEA0003308316031381000D30831281000B1D19
:060FFA00FC2F0B110800A2
:04400E00D4E0FFFFFC
:00000001FF
