:100000000A128A11142D00308A000408840A82071B
:100010000034013400340A34003464340034E834E9
:10002000033410342734563461346C346F347234F2
:100030002034653473343A34253469342034203420
:0200400000348A
:100A280083010A128A11D42EF000831203130C1EBC
:100A3800192D700899000800831603178801890189
:100A48008312870188018B0108008316031338304D
:100A58008715071683129400831691012730930097
:100A68001417941783128C118D1108000130851307
:100A78003D2DF000700E0F3946250A128A117008B4
:100A880046250800F1000F30F105F030880571089F
:100A98008807051705130800F9008B250A128A1123
:100AA800A03085250A128A11790885250A128A112B
:100AB800780885250A128A11BB250A128A110B307B
:100AC800F000F101F201F301C12DF9008B250A12A2
:100AD8008A11A03085250A128A11790885250A12FB
:100AE8008A11BE250A128A11A13085250A128A1197
:100AF80000308E250A128A117508FA00BB257A087B
:100B08000800F500A7257508831293000800A7259B
:100B180011140800F700A7250A128A119115A725B4
:100B28000A128A1183121308F800A7250A128A11DB
:100B380077080319A12D9112A22D91161116780884
:100B4800F500F60108000310831614190314003089
:100B580003180130F0001F30F1011105F200700494
:100B6800F3007108F400730403190800A72DA725E2
:100B780011150800A72591140800F401F40AF501DD
:100B8800F601F70177087302031DD42D7608720267
:100B9800031DD42D75087102031DD42D740870022D
:100BA800031C0800E1250A128A11F40A0319F50A40
:100BB8000319F60A0319F70AC62D0330831603131F
:100BC80081000D30831281000B1DE82D0B110800E8
:100BD800AA002130A3002008A00A84000A128A1162
:100BE80003200A128A11AB00AB080319822E2B08C6
:100BF800253A0319052E2A0884002B088000AA0A22
:100C0800EF2DA4012008A00A84000A128A110320EB
:100C18000A128A11AB00003A0319822E643A0319AA
:100C2800192E0D3A0319192EEF2D230884000008F8
:100C3800A600840A0008A700A30AA30AA71F2B2E50
:100C48000330A404A609A709A60A0319A70AAB0139
:100C5800AB0A03102B0D013E84000A128A110320EF
:100C68000A128A11FC000A128A1103200A128A1138
:100C7800FD002702031D422E7C082602031C492E74
:100C8800AB0A2B08053A031D2D2E24080339031936
:100C9800522E2A0884002D308000AA0A2B08A500AD
:100CA8007E2E0A30F700F8010310250D013E84005E
:100CB8000A128A1103200A128A11F0000A128A11F4
:100CC80003200A128A11F1002708F3002608F2000F
:100CD80086260A128A117108FA007008F900B026EF
:100CE8000A128A117708303EAB002A0884002B08C4
:100CF8008000AA0AA503250F552EEF2D2A08840087
:100D080080010800F401F501710870040319AB2E85
:100D1800F601F60AF11B942E0310F00DF10D8D2E3D
:100D28000310F40DF50D71087302031D9D2E700854
:100D38007202031CA72E7008F2027108031CF30349
:100D4800F30274140310F10CF00CF60B942E7508D2
:100D5800F1007408F0000800780877040319CF2E12
:100D6800FB01FB0AF81BBC2E0310F70DF80DB52E7E
:100D780078087A02031DC22E77087902031CCB2E4D
:100D88007708F9027808031CFA03FA020310F80C32
:100D9800F70CFB0BBC2E7A08F8007908F70008005E
:100DA8000A128A1120250A128A110A128A11292583
:100DB8000A128A1183160317880189018312031303
:100DC8008601831686018501880183120F308513F9
:100DD80005138910F000F101F201F3010A128A11DA
:100DE800C1250A128A1103308312031388000A30BE
:100DF80005170513F000F101F201F3010A128A1137
:100E0800C1250A128A11831203130A300517051324
:100E1800F000F101F201F3010A128A11C1250A1248
:100E28008A11831203130A3005170513F000F10124
:100E3800F201F3010A128A11C1250A128A1102303D
:100E48008312031388002830051705130A128A1124
:100E58003D250A128A110C300A128A113D250A1200
:100E68008A110A128A113A250A128A1106300A12C0
:100E78008A113D250A128A118316703087170713C5
:100E88008F000C3099009030831298002030831620
:100E98009800031787010030F300F2000130F100D9
:100EA800F430F0000A128A11C1250A128A110130A1
:100EB800831203138500FF3085000D300A128A1152
:100EC80018250A128A110A300A128A1118250A12DC
:100ED8008A116130BB00BC01831203133B080A125C
:100EE8008A1118250A128A111430F000F101F20152
:100EF800F3010A128A11C1250A128A1183120313F7
:100F0800BB0A0319BC0A3C08803AFF0080307F0204
:100F1800031D902F7B303B02031C702F0D300A12EB
:100F28008A1118250A128A110A300A128A111825FC
:100F38000A128A11BE01831203133E0886003E0876
:100F48000A3CF8003E080A128A1150250A128A1132
:100F580083120313FF30BE0AF000F101F201F3011E
:100F68000A128A11C1250A128A119F2F3E080A12F5
:100F78008A1169250A128A11831286006430F000EA
:100F8800F101F201F3010A128A11C1250A128A112C
:100F98000B3083120313A0003E08A1002C30A201DD
:100FA8000A128A11EC250A128A11BD013D082C3E4D
:100FB800840000080A128A1118250A128A111130B1
:100FC800BD0A3D02031CDA2FC830F000F101F2011E
:100FD800F3010A128A11C1250A128A110D300A1268
:100FE8008A1118250A128A110A300A128A1118253C
:080FF8000A128A11BE0ABA2F89
:04400E00D4E0FFFFFC
:00000001FF
