:060000000A128A115128CA
:10007800F00083120C1E3D287008990008008316B2
:100088008715071680309400283083129400831651
:10009800910109309413930008008316D001D1010F
:1000A800D201D301D401D501D601D701D801D90194
:1000B800DA0183010A128A15D12A8316B100533056
:1000C800A40083125208D20A84000A128A150A2050
:1000D8000A128A118316B400B4080319FC2D3408D7
:1000E800253A03197E2831088400340883138000D8
:1000F800B10A6528AA01AB01A801A9018312520817
:1001080084000A128A150A200A128A116B260A121A
:100118008A11031CB7288316AA01AB0183162B0882
:10012800F1002A08F0000A30F200F3017926831260
:10013800520884000A128A150A200A128A11AD2769
:100148000A128A11AA00DB27AB008312D20A5208CE
:1001580084000A128A150A200A128A116B260A12CA
:100168008A1103189228520884000A128A150A2054
:100178000A128A112E3A031DF128831629178312B1
:10018800D20A8316B201B3018312520884000A12FC
:100198008A150A200A128A116B260A128A11031C70
:1001A800722983163308F1003208F0000A30F20091
:1001B800F30179268312520884000A128A150A204C
:1001C8000A128A11AD270A128A11B200DB270A1215
:1001D8008A11B3008312D20AC8288316B201B30168
:1001E8002916722929158D292408840083130008EB
:1001F800B500B601A40A3604031D06299D30B500D2
:100208008030B600B701B8013708350784003608D2
:100218000318360A8312FF000A128A1500200A12F0
:100228008A11003803191D298316B70A0319B80A59
:10023800082983163308320403192E293808330293
:10024800031D28293708320203182E293308B8005D
:100258003208B7002B083802031D34292A08370250
:1002680003183D293708AA023808031CAB03AB0260
:100278003F29AA01AB01FF30AA07031CAB032A0AD6
:1002880003192B0A031966293108F7270A128A115C
:100298003F2936088312FF0083163508840083122D
:1002A8000A128A1500200A128A11D600831631080C
:1002B800840083125608831380008316B50A031935
:1002C800B60AB10A0130B7020030031CB803B802FD
:1002D800370A0319380A031965284D298312520869
:1002E800D20A84000A128A150A200A128A11831671
:1002F800B400003A0319FC2D643A03198D29023A17
:100308000319F6280F3A03198D291A3A0319F82800
:10031800652883120730D601831629058312D70072
:1003280056040319C12C8316291E9D290630B200D4
:10033800B3012408840083130008AE00840A00086F
:10034800AF00840A0008B0000330A4072E08F000AC
:100358002F08F1003008F200F301F401F5013F26FF
:100368000A128A110318C9292E08F0002F08F10073
:100378003008F20035270A128A117008AE00710899
:10038800AF007208B0000330A804AC01AD0130081A
:100398002F042E0403195F2AAE308400F0270A12B6
:1003A8008A11840A0008D800840A0008D9000F308E
:1003B8000310D90CD80CD70CD60CFF3E031DDC2932
:1003C80057088316AD00831256088316AC00823096
:1003D800AD01AC07031CAD03FF30AC07031CAD0334
:1003E8000330F000F1012D08F3002C08F200792603
:1003F8007108AD007008AC000A30F600F7012D084E
:10040800F9002C08F8000A128A156A260A128A11BD
:100418007708AD007608AC00AD1F162AFF30AC0790
:10042800031CAD032C03FF3A0A128A15D8240A12BA
:100438008A118A270A128A11A2278316250883128D
:10044800B000831626088312B1008316270883128A
:10045800B2000A128A15EC260A128A112D08831690
:10046800A50083122E088316A60083122F08831670
:10047800A700D4270A128A118030F301F4003F3014
:10048800F5003F260A128A1103184F2AFF30AC07DD
:10049800031CAD035F2AD4270A128A112030F30106
:1004A800F4004130F5003F260A128A11031C5F2A26
:1004B800AC0A0319AD0A3308803AFF0080307F0286
:1004C800031D682A0D3032020318932AFD273208CB
:1004D8000A128A157F210A128A114808BC004908A5
:1004E800BD004A08BE0083162E088312BF0083167B
:1004F8002F088312C000831630088312C1000A1621
:100508008A1179260A128A113C088316AE008312D2
:100518003D088316AF0083123E088316B000FD27FE
:100528002D08803AFF0080307F02031D9D2A0A3083
:100538002C020318BE2AFD2730082F042E040319A5
:10054800FF2A2E0897270A128A1192260A128A1160
:100558002308220421042004031DFF2A83162D08E2
:10056800803AFF0080307F02031DBC2A02302C0233
:10057800031CFF2AFD27D4270A128A117030F300C2
:100588008930F4004030F5003F260A128A1103181A
:10059800CF2AF730D02AF830AC07031CAD032C085B
:1005A8000A128A15D8240A128A118A27F0002F08FD
:1005B800F1003008F2002508F3002608F4002708A7
:1005C800F5000A128A1507210A128A117308831680
:1005D800A3007208A2007108A1007008A0002308F7
:1005E800B8002208B7002108B6002008B500AE01FF
:1005F800AF01B0013A2BFD272E0897270A128A115E
:1006080092260A128A117C278316B5003808FB0047
:100618003708FA003608F9003508F8000A128A1572
:10062800BA240A128A1178088312C8007908C90006
:100638007A08CA0083162E088312CB0083162F0867
:100648008312CC00831630088312CD003D270A128E
:100658008A1148088316AE00831249088316AF0032
:1006680083124A088316B000AC01AD01B401B40A84
:1006780055270A128A150A200A128A11D7000A1267
:100688008A150A200A128A11D8000A128A150A2025
:100698000A128A11D9000A128A150A200A128A1126
:1006A800DA0083163802031D692B83125908831652
:1006B8003702031D692B8312580883163602031D5F
:1006C800692B8312570883163502031C702BB40A52
:1006D80034080A3A031D3C2B320834078312D6002B
:1006E800831633080318330AB41BFF3E8312D7005E
:1006F80083162C0883125607D80083162D08031872
:100708002D0A83125707D90058088316AA028312A4
:1007180059088316031CAB03AB02330832040319D0
:10072800992BFF30AA07031CAB0328080339031DC4
:10073800AD2B2B08803AFF0080307F02031DA62BCB
:1007480001302A02031CB22BFD273108F7270A12B1
:100758008A11FF30AA07031CAB039D2BFD2728082D
:1007680003390319E92B310884002D30E52B5F2765
:100778000A128A1155270A128A150A200A128A11A2
:10078800F0000A128A150A200A128A11F1000A12C8
:100798008A150A200A128A11F2000A128A150A20FA
:1007A8000A128A1167270A128A11ED260A128A117B
:1007B80072270A128A1101260A128A11C2270A12FE
:1007C8008A11831380008316B10AB403340FBB2B3C
:1007D8002D08803AFF0080307F02031DF52B013081
:1007E8002C02031C002CFD273108E9270A128A1164
:1007F800AC07031CAD03EC2BFD273308803AFF0040
:1008080080307F02031D0A2C09303202031C0F2C92
:100818000830FD27112CFD273208B4008312D600BA
:10082800D701D61BD7038316B20283125708831643
:10083800031CB303B30234080319282C31088400BD
:100848002E3083138000B10A34080A128A15D8247E
:100858000A128A113C08B0003D08B1003E08B200F7
:1008680083162E08A2270A128A15EC260A128A1164
:100878002D08A0002E08A1002F08A20092260A1217
:100888008A117C270A128A11B02C5F270A128A1152
:1008980055270A128A150A200A128A11F0000A122C
:1008A8008A150A200A128A11F1000A128A150A20EA
:1008B8000A128A11F2000A128A150A200A128A11EB
:1008C80067270A128A11ED260A128A1172270A125C
:1008D8008A1101260A128A11C2270A128A11831361
:1008E80080008316B10A55270A128A150A200A12AF
:1008F8008A11A0000A128A150A200A128A11A10078
:100908000A128A150A200A128A11A2000A128A15E6
:100918000A200A128A11A300831638088312A70036
:10092800831637088312A600831636088312A5009B
:10093800831635088312A40001260A128A11230897
:100948008316B800831222088316B7008312210881
:100958008316B600831220088316B500B403340F3B
:10096800492C33083204031965283108E9270A128B
:100978008A11B207031CB303B52C8316240884001C
:100988008313F0270A128A1156088316B5008312BA
:1009980057088316B6000030B61BFF30B700B80002
:1009A800A40AA40AB81FE52C0330A804B509B6099F
:1009B800B709B809B50A0319B60A0319B70A03191A
:1009C800B80A33083204031DF12C380837043604FA
:1009D80035040319B20A0319B30AB401B40A552736
:1009E8000A128A150A200A128A11D7000A128A15D1
:1009F8000A200A128A11D8000A128A150A200A1235
:100A08008A11D9000A128A150A200A128A11DA00F4
:100A180083163802031D202D8312590883163702C6
:100A2800031D202D8312580883163602031D202D1E
:100A38008312570883163502031C272DB40A34087D
:100A48000A3A031DF32C3408B8270A128A1133080E
:100A5800803A83125802031D352D831632088312FB
:100A6800560203183B2DFD273208B400532D831678
:100A7800CB270A128A113308803A8312D800570804
:100A8800803A5802031D4B2D56088316320203186C
:100A9800532DFD273408B200B301B21BB303FD2761
:100AA8002B082A040319602D280803390319602D1F
:100AB800FF30AA07031CAB03291F7D2D3308803A9A
:100AC8008312D60083162B08803A83125602031D20
:100AD800702D83162A08320203187A2DFD27320852
:100AE800AA023308031CAB03AB027D2DFD27AA0124
:100AF800AB013408B8270A128A112B08803A8312EE
:100B08005802031D8B2D83162A08831256020318D8
:100B1800992D8316CB270A128A11AA028312570825
:100B28008316031CAB03AB029C2DFD27AA01AB0166
:100B38002B082A040319AE2D3108840020308313B2
:100B48008000FF30B10AAA07031CAB032B082A0454
:100B5800031DA02D280803390319B82D3108840076
:100B68002D3083138000B10AFF30B207031CB30392
:100B7800320A0319330A031965280A308312A000C0
:100B8800A101A201A301831632088312D600031023
:100B9800D60D0310560D4F3E84000A128A150A20FE
:100BA8000A128A11F0000A128A150A200A128A11FA
:100BB800F1000A128A150A200A128A11F2000A1292
:100BC8008A150A200A128A1167270A128A11ED2645
:100BD8000A128A1172270A128A1101260A128A1128
:100BE8002008303E8316B400310884003408B52D3F
:100BF800310884008313800108002308220421049B
:100C080020040319362EFD01FD0AA31B112E031023
:100C1800A00DA10DA20DA30D082E23082702031D68
:100C28001F2E22082602031D1F2E21082502031D40
:100C38001F2E20082402031C302E2008A40221089D
:100C4800031C210FA5022208031C220FA602230859
:100C5800031C230FA7020310A30CA20CA10CA00CC9
:100C6800FD0B112E2708A3002608A2002508A100C5
:100C78002408A0000800F21F4E2E7008003CF00067
:100C88007108031C710F003CF1007208031C720FFD
:100C9800803CF200F51F5D2E7308003CF3007408D9
:100CA800031C740F003CF4007508031C750F803C8E
:100CB800F5008030F206F50675087202031D08007B
:100CC80074087102031D0800730870020800F1001F
:100CD8003A30F00171020318772E30307102031C8C
:100CE800772EF001F00A700C0800F401F501701C71
:100CF800832E7208F4070318F50A7308F507031022
:100D0800F20DF30D0310F10CF00C71087004031DC3
:100D18007B2E7508F1007408F0000800E2270A121B
:100D28008A110310250D260DAC00AC08031DA12E59
:100D3800A001A101A201A3010800E2270A128A1159
:100D480017300310A60CA50CA40CFF3E031DA52EFE
:100D58002408A700A117A2012008A8002108A900BB
:100D68002208AA008E30AB01AC02AC1FC82E2C089A
:100D7800803A8F3E031C9C2E0310AB0CAA0CA90CC6
:100D8800A80CAC0FC02ED62E18302C0203189C2E9F
:100D9800AC080319D62E0310A80DA90DAA0DAB0D8A
:100DA800AC03CC2E27080319E42EA809A909AA091F
:100DB800AB09A80A0319A90A0319AA0A0319AB0A55
:100DC8002B08A3002A08A2002908A1002808A000CF
:100DD8000800F801F901FA01FB01730872047104B3
:100DE800700403192C2FFC01FC0AF31B012F0310BC
:100DF800F00DF10DF20DF30DF82E0310F80DF90DAD
:100E0800FA0DFB0D73087702031D142F7208760282
:100E1800031D142F71087502031D142F7008740226
:100E2800031C262F7008F4027108031C710FF502C9
:100E38007208031C720FF6027308031C730FF70283
:100E480078140310F30CF20CF10CF00CFC0B012FCE
:100E58007B08F3007A08F2007908F1007808F000BE
:100E68000800720871047004031908008030F20643
:100E780008008030CA064B08BC004C08BD004D086D
:100E8800BE004808BF004908C0004A08C1000A1649
:100E98008A1179263C08C8003D08C9003E08CA00E6
:100EA800080034088312D6000310D60D0310560D1F
:100EB8004F3E840008000A308312A000A101A2015D
:100EC800A30183160800F30083163808F7003708D3
:100ED800F6003608F5003508F40008007308831298
:100EE800A7007208A6007108A5007008A4000800F1
:100EF80023088316B800831222088316B7008312CA
:100F080021088316B6008312200808003C088316BF
:100F1800A50083123D088316A60083123E08831697
:100F2800A7002E0808008312A00083162F0883123A
:100F3800A100831630088312A20008008312AD00B6
:100F480083162F088312AE00831630088312AF0071
:100F580008007007D6000030031801307107D70069
:100F68005608D03E831608008312D600D701D61B38
:100F7800D7035708803AD800831608002008303E67
:100F8800D70083163108840083125708080003131A
:100F980034088312D600D701D61BD703831608005E
:100FA8002508F0002608F1002708F200080083123F
:100FB80057080318013EFF3E831608002008A400C6
:100FC8002108A5002208A6000800840030308313F9
:100FD8008000FF30B10A080000088312D600840A96
:100FE8000008D70008008400203083138000B10A6D
:100FF8000800831603130800FF1B0A2883137F18B1
:1010080083170008840A0319FF0A080008308A00B9
:101018000408840A82070034003480343F34CD3415
:10102800CC343D34D73423343C34123483343A340A
:10103800B734D1343834C634273437343834863466
:101048003534C034D6343334CC342B343234703461
:1010580089343034E734DB342E34E5343C341E3400
:101068004234A2340D34003480343F340034203408
:1010780041340034C834423400347A34443440347F
:101088001C3446345034C33447342434743449341B
:10109800973418344B34BC34BE344C346B346E340F
:1010A8004E340334153450347934AD346034F33469
:1010B8004934713401340034003400340A340034C3
:1010C800003400346434003400340034E834033429
:1010D800003400341034273400340034A03486340B
:1010E80001340034403442340F34003480349634B0
:1010F800983400340034E134F53405340034CA340B
:101108009A343B344534733463347234693462340A
:10111800693465346E3464346F342E342E342E348E
:1011280000344434693472343A3425346934093427
:1011380056343A342534733400344C3465347934B5
:1011480065346E3464346F342E342E342E340034C7
:1011580028346E3475346C346C34293400342034BB
:101168004434693472343A340034253431342E34FA
:1011780033346634003456343A3400342534693410
:02118800003431
:10120E007008F6007108F7007208F8000310770DE9
:10121E00780D8312A500A508031D1A29F001F1010E
:10122E00F201F30108007308F6007408F700750860
:10123E00F8000310770D780DA400A40803191529E2
:10124E007F30F117F201F417F501A001A101A201FF
:10125E00A301A50298302407F600A5021830A400B9
:10126E000310A00DA10DA20DA30D75087202031D92
:10127E00462974087102031D462973087002031C67
:10128E0054297308F0027408031C740FF1027508D8
:10129E00031C750AF20220140310F00DF10DF20D6D
:1012AE00A40B3729A51F68292508803A973E031CF1
:1012BE0015290310A30CA20CA10CA00CA50F6029DC
:1012CE0076291830250203181529A5080319762941
:1012DE000310A00DA10DA20DA30DA5036C292308CB
:1012EE00F3002208F2002108F1002008F0000800A7
:1012FE008312D1006E305102031C0A2A0330F9000A
:10130E000A30F5006430F00051089F220A128A1547
:10131E0084220A128A155B270A128A151C3E840043
:10132E000A128A150A200A128A15AD000A128A15A7
:10133E000A200A128A15AE000A128A150A200A120B
:10134E008A15AF000330F9006430F500510884228D
:10135E000A128A155B270A128A15373E84000A1272
:10136E008A150A200A128A15B0000A128A150A2056
:10137E000A128A15B1000A128A150A200A128A1553
:10138E00B2000A128A15EC260A128A15CA220A120D
:10139E008A150330F9000A30F00051089F220A1214
:1013AE008A155B270A128A15013E84000A128A15D5
:1013BE000A200A128A15AD000A128A150A200A128C
:1013CE008A15AE000A128A150A200A128A15C2223E
:1013DE000A128A15EC260A128A152D08CB002E0841
:1013EE00CC002F08CD003F30AD01AE01AF004B0851
:1013FE00B0004C08B1004D08B2000A128A15EC2656
:10140E000A128A15BB2A0B305102031C5E2A0330C6
:10141E00F9000A30F00051089F220A128A155B2744
:10142E000A128A15013E84000A128A150A200A122F
:10143E008A15AD000A128A150A200A128A15AE0004
:10144E000A128A150A200A128A15AF000330F90013
:10145E000A30F500510884220A128A155B270A12F7
:10146E008A151C3E84000A128A150A200A128A1551
:10147E00B0000A128A150A200A128A15B1000A1241
:10148E008A150A200A128A15B2000A128A15EC264B
:10149E000A128A15CA220A128A153F30AD01AE0110
:1014AE00C2220A128A15EC260A128A15BB2A3F306E
:1014BE00AD01AE01AF000330F90051080A128A15D2
:1014CE005B270A128A15013E84000A128A150A2029
:1014DE000A128A15B0000A128A150A200A128A15F3
:1014EE00B1000A128A150A200A128A15B2000A12CF
:1014FE008A15EC260A128A15BB2AF600F801750821
:10150E0003199D2AF701F70AF51B902A0310F50D12
:10151E008A2A0310F80D75087602031C9A2A75089C
:10152E00F60278140310F50CF70B902A78080800D1
:10153E00F2000830F300F4017208F10007300310D6
:10154E00F10CFF3E0310031DA72A740D7104F40065
:10155E000310F20D70087402031CB72A7008F4020F
:10156E00F30BA32A740808002D08C8002E08C90022
:10157E002F08CA000800AF004E08B0004F08B10097
:10158E005008B20008002D08CE002E08CF002F08FC
:10159E00D000080003308316031788008901C0307D
:1015AE0003138F0003308500860106308700880103
:1015BE008901FC308F168F160F170F1492000C3006
:1015CE0083129D009700803095009B008C010730A0
:1015DE0092008C08031DF02A8316871007118312C0
:1015EE000F30091009118910F000F1010A168A1145
:1015FE00E4270A128A1503308312031388000A3077
:10160E0009150911F000F1010A168A11E4270A12D0
:10161E008A15831203130A3009150911F000F1011E
:10162E000A168A11E4270A128A15831203130A3046
:10163E0009150911F000F1010A168A11E4270A12A0
:10164E008A150230831203138800283009150911F8
:10165E00F400F5010A168A11D3270A128A150C30E6
:10166E00F400F5010A168A11D3270A128A150A16F2
:10167E008A11A8270A128A150630F400F5010A16F7
:10168E008A11D3270A128A15860100300A168A118A
:10169E003B270A128A157730F6008030F7000A16BB
:1016AE008A11B3270A128A150A128A1143200A12C6
:1016BE008A15831286018316CF01CE014F08F000E2
:1016CE00FF30F101F200F3010A128A1179260A1293
:1016DE008A157108CC007008CB004E08CB07031892
:1016EE00CC0AC13083129F009F149F187C2B1E08BA
:1016FE00950083161E088312DB000310DB0C03100B
:10170E00DB0C5B080C3897001E088316D000A13046
:10171E008312AD00A030AE003C30AF0083165008EF
:10172E000A128A15AB240A128A1578088312B000A1
:10173E007908B1007A08B2000A128A15EC260A124C
:10174E008A151E08860083164E08F4005008F50010
:10175E004F080A168A1146270A128A158316031392
:10176E00CE0A652B7030871707138F000C30990047
:10177E00903083129800203083169800031787014B
:10178E00F430F0000130F1000A168A11E4270A1233
:10179E008A150330831203138500FF308500A130B4
:1017AE00AD00A030AE003C30AF0083164E08F10005
:1017BE004F080A168A1161270A128A150A128A150B
:1017CE00AB240A128A1578088312B0007908B1008A
:1017DE007A08B2000A128A15EC260A128A152D080A
:1017EE008316C80083122E088316C90083122F0891
:1017FE008316CA00AA308312D200831648088312B9
:10180E00D300831649088312D40083164A08831224
:10181E00D500D1300A128A1161200A128A15403081
:10182E000A168A113B270A128A15B030F60080304C
:10183E00F7000A168A11B3270A128A1542300A16C1
:10184E008A113B270A128A15D130F600F7010A16C3
:10185E008A11B3270A128A150A30F000F1010A160E
:10186E008A11E4270A128A15831603134F08F00013
:10187E00FF30F101F200F3010A128A1179260A12E1
:10188E008A157108CC007008CB004E08CB070318E0
:10189E00CC0AA430F6008030F7000A168A11B3275E
:1018AE000A128A15B330D20083164C088312D40064
:1018BE0083164B088312D300D6300A128A11612088
:1018CE000A128A15D630F600F7010A168A11B327C6
:1018DE000A128A158630D20083164C088312D40061
:1018EE0083164B088312D300D130D500B9300A12BB
:1018FE008A1161200A128A15CD014D08B93E840065
:10190E0000080A128A113C200A128A158316113019
:10191E00CD0A4D02031C842C0D300A128A113C2074
:10192E000A128A150A300A128A113C200A128A15E6
:10193E000A30F000F1010A168A11E4270A128A15FC
:10194E0083160313CE0AB92BFB00F0008E30F10183
:10195E00F201F300F40169277008F8007108F9002C
:10196E007208FA0008008E30FC00FF307B05031968
:10197E00C72C0310FB0CFA0CF90CF80CFC0ABC2C4F
:10198E007808F0007908F1007A08F2007C08F3007C
:10199E00F40169277008F8007108F9007208FA005E
:1019AE0008008312C600C61FA42DC609C60A460823
:1019BE00803A123E031C482D0A30CB270A128A1594
:1019CE00AF260A128A157108F9007008F8006A2607
:1019DE000A128A15F8271C3E84000A128A150A205C
:1019EE000A128A15AD000A128A150A200A128A15E1
:1019FE00AE000A128A150A200A128A15E0270A1268
:101A0E008A15F81BF9036A260A128A15A727373E8C
:101A1E0084000A128A150A200A128A15B0000A12C8
:101A2E008A150A200A128A15B1000A128A150A208E
:101A3E000A128A15B200EC260A128A15AF270A126C
:101A4E008A15F21BF303AF260A128A15C327013E2D
:101A5E0084000A128A150A200A128A15AD000A128B
:101A6E008A150A200A128A15AE000A128A150A2051
:101A7E000A128A15E8270A128A15EC260A128A1506
:101A8E00BC2F4608803A753E031C8D2D0A30F0009F
:101A9E00F1014608F200F301F21BF303AF260A121E
:101AAE008A15C327013E84000A128A150A200A12DB
:101ABE008A15AD000A128A150A200A128A15AE007E
:101ACE000A128A150A200A128A15F0270A128A1596
:101ADE00F81BF9036A260A128A15A7271C3E8400F2
:101AEE000A128A150A200A128A15B0000A128A15DD
:101AFE000A200A128A15B1000A128A150A200A1241
:101B0E008A15B200EC260A128A15BC2F0330F90092
:101B1E0046085B27013E84000A128A150A200A1223
:101B2E008A15BC000A128A150A200A128A15BD00EF
:101B3E000A128A150A20BE0008004608803A123E94
:101B4E00031C0E2E0A30CB270A128A15AF260A1254
:101B5E008A157108F9007008F8006A260A128A15AB
:101B6E00F827433E84000A128A150A200A128A15A3
:101B7E00AD000A128A150A200A128A15AE000A1240
:101B8E008A150A200A128A15E0270A128A15F81BEE
:101B9E00F9036A260A128A15A7275E3E84000A12E6
:101BAE008A150A200A128A15B0000A128A150A200E
:101BBE000A128A15B1000A128A150A200A128A150B
:101BCE00B200EC260A128A15AF270A128A15F21BEA
:101BDE00F303AF260A128A15C327283E84000A1281
:101BEE008A150A200A128A15AD000A128A150A20D1
:101BFE000A128A15AE000A128A150A200A128A15CE
:101C0E00E8270A128A15EC260A128A15BC2F4608F6
:101C1E00803A753E031C532E0A30F000F10146083F
:101C2E00F200F301F21BF303AF260A128A15C32743
:101C3E00283E84000A128A150A200A128A15AD005F
:101C4E000A128A150A200A128A15AE000A128A157D
:101C5E000A200A128A15F0270A128A15F81BF903B0
:101C6E006A260A128A15A727433E84000A128A158D
:101C7E000A200A128A15B0000A128A150A200A12C0
:101C8E008A15B1000A128A150A200A128A15B200A4
:101C9E00EC260A128A15BC2F0330F90046085B2782
:101CAE00283E84000A128A150A200A128A15BC00E0
:101CBE000A128A150A200A128A15BD000A128A15FE
:101CCE000A20BE000800FB01F71F742EF609F70963
:101CDE00F60A0319F70AFB01FB0AF91F7D2EF80914
:101CEE00F909F80A0319F90A0130FB06FC01FD0196
:101CFE00770876040319A22EFA01FA0AF71B8B2E27
:101D0E000310F60DF70D842E0310FC0DFD0D770854
:101D1E007902031D942E76087802031C9E2E7608F7
:101D2E00F8027708031CF903F9027C140310F70C70
:101D3E00F60CFA0B8B2E7B080319AA2EFC09FD0953
:101D4E00FC0A0319FD0A7D08F7007C08F60008005E
:101D5E00F501F31FB92EF209F309F20A0319F30A7A
:101D6E00F501F50AF11FC02EF009F109F00A031969
:101D7E00F10A710870040319DF2EF401F40AF11B45
:101D8E00CC2E0310F00DF10DC52E71087302031D3C
:101D9E00D22E70087202031CDB2E7008F20271083C
:101DAE00031CF303F3020310F10CF00CF40BCC2E16
:101DBE0075080319E72EF209F309F20A0319F30A5B
:101DCE007308F1007208F00008002D08B3002E0809
:101DDE00B4002F08B5000310340D350DB600B6084B
:101DEE00031DFD2EAD01AE01AF0108003008B3009A
:101DFE003108B4003208B5000310340D350DBB00A8
:101E0E00BB08031D0E2FAD01AE01AF0108003B084C
:101E1E007B3EB6072F08BB003208BB068030BB05E1
:101E2E000730AE17B117B201B701B801B901BA0048
:101E3E002D1C292F3008D6270A128A150318320AAC
:101E4E00031DB9070310AF0CAE0CAD0C0310B00D93
:101E5E00B10DB20DBA0B1F2F0930BA002D1C3F2F3A
:101E6E003008D6270A128A150318320A031DB9073D
:101E7E000310AF0CAE0CAD0C0310B90CB80CB70CB4
:101E8E00BA0B352F3708F0003808F1003908F20088
:101E9E003608F3003B08F40069277008AD0071089E
:101EAE00AE007208AF000800FB00FA0179087B183B
:101EBE00FA070310F90D0310FB0CFB08031D5D2F31
:101ECE007A08080073080319712F720871047004E0
:101EDE00031D7A2FF001F101F2010800F30A03103D
:101EEE00F20CF10CF00CFE3072050319892F752FD0
:101EFE00F30AF00A0319F10A0319F20A0310F20C9D
:101F0E00F10CF00CFF3072050319932F7F2FF303A2
:101F1E000310F00DF10DF20DF11F8E2F731CF11346
:101F2E000310F30C7308F700F601F5017508F004C1
:101F3E007608F1047708F2047408031DF2170800FE
:101F4E007608C1007708C200410841074107080022
:101F5E002D08C3002E08C4002F08C5000A30F0005B
:101F6E00F1014608F200F30108002D08BC002E080E
:101F7E00BD002F08BE0008007008BF007108C00029
:101F8E003F083F073F070800F600F7014608F2003A
:101F9E00F301F21BF3036430F000F1010800B70700
:101FAE00310803110318310A031DB8073208031153
:101FBE000800AF006430F600F7014608F800F9019A
:101FCE000800AF004308B0004408B1004508B20055
:101FDE000800AF000A30F600F7014608F800F901D4
:101FEE0008007608BF007708C0003F083F073F078C
:021FFE000800D9
:102B6E0070306C260A168A110310780D790D8312B7
:102B7E000313A500A508031DC92DF001F101F201F3
:102B8E00F301080073306C260A168A110310780DB3
:102B9E00790DA400A4080319C42D70308400803070
:102BAE00840A840A80047030840A84007330840A94
:102BBE00840A840A800184008030840A840A800496
:102BCE007330840A84007F30840A840A840A800168
:102BDE00A001A101A201A301A502A0302407F600C5
:102BEE00A5022030A40073300310A00DA10DA20D7C
:102BFE00A30D6C260A168A11703084000008FA00A4
:102C0E00840A0008FB00840A0008FC00840A0008FD
:102C1E00FD0079087D02031D1E2E78087C02031D1F
:102C2E001E2E77087B02031D1E2E76087A02031CC9
:102C3E003A2E73306C260A168A117030840076088C
:102C4E008002840A7708031C770F8002840A7808B2
:102C5E00031C780F8002840A7908031C790A80020B
:102C6E00033084022014703084000310800D840A17
:102C7E00800D840A800D840A800DA40BFA2DA51FE9
:102C8E00552E2508803A9F3E031CC42D0310A30C1D
:102C9E00A20CA10CA00CA50F4D2E632E20302502E8
:102CAE000318C42DA5080319632E0310A00DA10D42
:102CBE00A20DA30DA503592E2308F3002208F2003E
:102CCE002108F1002008F000080084000008F6003A
:102CDE00840A0008F700840A0008F800840A000835
:102CEE00F90008003C08C2003D08C3003E08C400BD
:102CFE000310430D440DC7003F08C2004008C30037
:102D0E004108C4000310430D440DC60047080319C3
:102D1E009C2E4608470246080318A42EC2004708F8
:102D2E00C20219304202031CA32E3F08BC00400809
:102D3E00BD004108BE0008004608031908004708F8
:102D4E0046020318B22E4708C2004608C2021930C6
:102D5E004202031808000630C500BE1BC517C11B72
:102D6E004517BD17BE01C017C1014608470203181B
:102D7E00D92E0310BF0DC00DC10DC6034608470660
:102D8E000319D42EC503450807390319D42EC02EB6
:102D9E000310BE0CBD0CBC0CC70A4708460603192F
:102DAE00F52ECF2E470846020318F52E0310BC0D44
:102DBE00BD0DBE0DC703460847060319F12EC50308
:102DCE00450807390319F12EDD2E0310C10CC00C76
:102DDE00BF0CC60A47084606031DEC2EC51F002F62
:102DEE00FF30BC06BD06BE06BC0A0319BD0A031998
:102DFE00BE0A451F0B2FFF30BF06C006C106BF0A15
:102E0E000319C00A0319C10AC5013C08BF073D08D2
:102E1E00031103183D0A031DC0073E0803110318D2
:102E2E003E0A031DC107C11F272FFF30BF06C00674
:102E3E00C106BF0A0319C00A0319C10AC501C50A92
:102E4E003F08F0004008F1004108F2004708F30087
:102E5E004508F4000A128A1569277008BC0071082B
:102E6E00BD007208BE000800F60083120910760835
:102E7E00F4008030F501F4070318F50AD32FF6009D
:102E8E008A270A168A11A03082270A168A11760816
:102E9E0082270A168A11740882270A168A11750863
:102EAE0082270A168A118E270A168A110B30F00015
:102EBE00F101E42FF2008A270A168A11A030822728
:102ECE000A168A11720882270A168A117108822739
:102EDE000A168A1193270A168A11A13082270A161A
:102EEE008A1198270A168A11F300A0270A168A114A
:102EFE008E2773080800F00083128C11700893005F
:102F0E008C190800872F1114111C08008B2F8316A3
:102F1E001115111D0800902F83169114911C080095
:102F2E00952F8C118316911583128C1D9B2F1308D0
:102F3E0008008C1183169116111683128C19080035
:102F4E00A42F0910F401F40AF501D3270A168A11E9
:102F5E000230F000F101E42F831209147708FF000C
:102F6E00760884000A128A1500200A168A11003883
:102F7E00031908007708FF00760884000A128A15E4
:102F8E0000200A168A11F400F501D3270A168A11B9
:102F9E00F60A0319F70AB52FF001F00AF101E4273A
:102FAE00740E0F3983120313880009150911740862
:102FBE000F398800091509110800F201F301730891
:102FCE007102031DEC2F72087002031C0800F52716
:102FDE000A168A11F20A0319F30AE62F0130831634
:102FEE00031381000D30831281000B1DFC2F0B117A
:022FFE000800C9
:04400E00D4E8FFFFF4
:00000001FF
