:060000000A128A11EC2F28
:1000BE008C1E5F281A080800F401F50171087004FF
:1000CE0003198828F601F60AF11B71280310F00DAA
:1000DE00F10D6A280310F40DF50D71087302031D5E
:1000EE007A2870087202031C84287008F2027108C4
:1000FE00031CF303F30274140310F10CF00CF60B53
:10010E0071287508F1007408F00008008312D500FC
:10011E006E305502031C18290330F9000A30F50021
:10012E006430F0005508AD210A128A1192210A1688
:10013E008A115B270A128A111C3E84000A128A1148
:10014E0013270A128A11B1000A128A1113270A12F2
:10015E008A11B2000A128A1113270A128A11B300E9
:10016E000330F9006430F500550892210A168A1101
:10017E005B270A128A11373E84000A128A1113274E
:10018E000A128A11B4000A128A1113270A128A114E
:10019E00B5000A128A1113270A128A11B6000A161E
:1001AE008A11EC260A128A11D8210A128A110330FA
:1001BE00F9000A30F0005508AD210A168A115B27A6
:1001CE000A128A11013E84000A128A1113270A129A
:1001DE008A11B1000A128A1113270A128A11B2006B
:1001EE000A128A1113270A128A11D0210A168A11AD
:1001FE00EC260A128A113108CF003208D0003308DB
:10020E00D1003F30B101B201B3004F08B400500825
:10021E00B5005108B6000A168A11EC260A128A1188
:10022E00C9290B305502031C6C290330F9000A3022
:10023E00F0005508AD210A168A115B270A128A11A1
:10024E00013E84000A128A1113270A128A11B10084
:10025E000A128A1113270A128A11B2000A128A117F
:10026E0013270A128A11B3000330F9000A30F50081
:10027E00550892210A168A115B270A128A111C3E12
:10028E0084000A128A1113270A128A11B4000A1264
:10029E008A1113270A128A11B5000A128A1113271E
:1002AE000A128A11B6000A168A11EC260A128A114F
:1002BE00D8210A128A113F30B101B201D0210A169B
:1002CE008A11EC260A128A11C9293F30B101B201F6
:1002DE00B3000330F90055080A168A115B270A127B
:1002EE008A11013E84000A128A1113270A128A11FA
:1002FE00B4000A128A1113270A128A11B5000A12C3
:10030E008A1113270A128A11B6000A168A11EC26D0
:10031E000A128A11C929F600F80175080319AB29CA
:10032E00F701F70AF51B9E290310F50D9829031006
:10033E00F80D75087602031CA8297508F6027814C4
:10034E000310F50CF70B9E2978080800F200083010
:10035E00F300F4017208F10007300310F10CFF3EB8
:10036E000310031DB529740D7104F4000310F20D72
:10037E0070087402031CC5297008F402F30BB1292E
:10038E00740808003108CC003208CD003308CE00C6
:10039E000800B3005208B4005308B5005408B60064
:1003AE0008003108D2003208D3003308D400080008
:1003BE0020308316031788008901C03003138F0085
:1003CE00FF308500860106308700880101308900E4
:1003DE00FC3092000C3083129D0097008030950007
:1003EE009B008C01073092008C08031DFB2983169D
:1003FE008710071183120F30091189100910F000B0
:10040E00F1010A168A11AD240A128A1103308312E1
:10041E00031388000A3089148910F000F1010A16BE
:10042E008A11AD240A128A11831203130A30891419
:10043E008910F000F1010A168A11AD240A128A11F0
:10044E00831203130A3089148910F000F1010A1681
:10045E008A11AD240A128A11023083120313880006
:10046E00283089148910F400F5010A168A119C248B
:10047E000A128A110C30F400F5010A168A119C2416
:10048E000A128A110A168A1171240A128A1106306A
:10049E00F400F5010A168A119C240A128A118601AB
:1004AE0083167030871707138F000C309900903029
:1004BE008312980020308316980003178701F430BA
:1004CE00F0000130F1000A168A11AD240A128A11C9
:1004DE000330831203138500FF3085000A168A113C
:1004EE0071240A128A1100300A168A1102240A1285
:1004FE008A119630F6008030F7000A168A117D2494
:10050E000A128A110A128A115F200A128A118316A0
:10051E00BE00453A031DF92E00300A168A11022438
:10052E000A128A118730F6008030F7000A168A11F7
:10053E007D240A128A110A128A11DF270A128A11E1
:10054E00831286018316C301BF01C0010030400231
:10055E00043003193F020318EA2AC401C101C20183
:10056E00013042020030031941020318E52AD5304A
:10057E0083129F009F149F18C22A1E08950083168F
:10058E001E088312DF000310DF0C0310DF0C5F0860
:10059E000C3897001E088316D1004408F400510849
:1005AE00F50043080A168A110E240A128A118316C0
:1005BE000313C40AC10A0319C20AB72AC30ABF0A1F
:1005CE000319C00AAD2AC301C101C201BF01C00196
:1005DE00BC01BD010A168A1171240A128A1100305B
:1005EE000A168A1102240A128A117730812A0A16F3
:1005FE008A1171240A128A1100300A168A110224F5
:10060E000A128A11B330F6008030F7000A168A11EA
:10061E007D240A128A110030831640020430031919
:10062E003F020318DE2EC401C101C2010130420295
:10063E000030031941020318D92E43088312AD006E
:10064E00831644088312AE000A168A1129240A1250
:10065E008A118600A130B100A030B2003C30B30048
:10066E00831644088312AE00831643088312AD002E
:10067E000A168A1129240A128A110A168A11C92405
:10068E000A128A112D08B4002E08B5002F08B600E4
:10069E000A168A11EC260A128A1131088316B9003D
:1006AE00831232088316BA00831233088316BB00F6
:1006BE00BE308312D600831639088312D7008316F4
:1006CE003A088312D80083163B088312D900D23021
:1006DE000A128A1535200A128A1140300A168A111A
:1006EE0002240A128A11C430F6008030F7000A166E
:1006FE008A117D240A128A1142300A168A110224A6
:10070E000A128A11D230F600F7010A168A117D24D8
:10071E000A128A1183164008D0003F08CF006430B9
:10072E00F000F1015008F3004F08F2000A128A118E
:10073E0063200A128A117108CE007008CD004E088F
:10074E00F1004D08F0009C30F200FF30F3000A1269
:10075E008A15F0240A128A117108CC007008CB0099
:10076E004F08CB070318CC0A5008CC070A30F0000C
:10077E00F1014C08F3004B08F2000A128A116320B3
:10078E000A128A117108CA007008C9004A08F100DD
:10079E004908F000F630F200FF30F3000A128A1515
:1007AE00F0240A128A117108C6007008C5004E089E
:1007BE00F1004D08F0009C30F200FF30F3000A12F9
:1007CE008A15F0240A128A117008C5070318C60A82
:1007DE007108C6074F08C5070318C60A5008C60792
:1007EE004D08303E0A128A11F7270A128A11831613
:1007FE004908303E0A128A11F7270A128A11831607
:10080E004508303E0A128A11F7270A128A110D3056
:10081E000A128A11F7270A128A110A300A128A114D
:10082E00F7270A128A11FA30F000F1010A168A111E
:10083E00AD240A128A11831603134208D000410810
:10084E00CF006430F000F1015008F3004F08F200C1
:10085E000A128A1163200A128A117108CE007008DA
:10086E00CD004E08F1004D08F0009C30F200FF3034
:10087E00F3000A128A15F0240A128A117108CC00AC
:10088E007008CB004F08CB070318CC0A5008CC07D2
:10089E000A30F000F1014C08F3004B08F2000A1286
:1008AE008A1163200A128A117108CA007008C900E1
:1008BE004A08F1004908F000F630F200FF30F3006C
:1008CE000A128A15F0240A128A117108C6007008DD
:1008DE00C5004E08F1004D08F0009C30F200FF30CC
:1008EE00F3000A128A15F0240A128A117008C5073D
:1008FE000318C60A7108C6074F08C5070318C60AAB
:10090E005008C6074D08303E0A128A11F7270A1200
:10091E008A1183164908303E0A128A11F7270A12E5
:10092E008A1183164508303E0A128A11F7270A12D9
:10093E008A110D300A128A11F7270A128A110A300B
:10094E000A128A11F7270A128A11FA30F000F10101
:10095E000A168A11AD240A128A118316031344084B
:10096E00BC00BD0143088312DF00E001E000DF019F
:10097E005F088316BC070318BD0A8312600883162E
:10098E00BD07BC0A0319BD0A3D08D0003C08CF00C4
:10099E00E830F0000330F1005008F3004F08F20089
:1009AE000A128A1163200A128A117108C80070088F
:1009BE00C7004808F1004708F0001830F200FC307C
:1009CE00F3000A128A15F0240A128A117108CC005B
:1009DE007008CB004F08CB070318CC0A5008CC0781
:1009EE006430F000F1014C08F3004B08F2000A12DB
:1009FE008A1163200A128A117108CE007008CD0088
:100A0E004E08F1004D08F0009C30F200FF30F3006C
:100A1E000A128A15F0240A128A117108CC00700885
:100A2E00CB004808F1004708F0001830F200FC3007
:100A3E00F3000A128A15F0240A128A117008CB07E5
:100A4E000318CC0A7108CC074F08CB070318CC0A41
:100A5E005008CC070A30F000F1014C08F3004B08A7
:100A6E00F2000A128A1163200A128A117108CA0052
:100A7E007008C9004A08F1004908F000F630F2008B
:100A8E00FF30F3000A128A15F0240A128A11710837
:100A9E00C6007008C5004E08F1004D08F0009C30ED
:100AAE00F200FF30F3000A128A15F0240A128A119E
:100ABE007008C5070318C60A7108C6074808F10072
:100ACE004708F0001830F200FC30F3000A128A15C5
:100ADE00F0240A128A117008C5070318C60A710895
:100AEE00C6074F08C5070318C60A5008C6074708A9
:100AFE00303E0A128A11F7270A128A1183164D0800
:100B0E00303E0A128A11F7270A128A1183164908F3
:100B1E00303E0A128A11F7270A128A1183164508E7
:100B2E00303E0A128A11F7270A128A110D300A1264
:100B3E008A11F7270A128A110A300A128A11F72728
:100B4E000A128A11FA30F000F1010A168A11AD2448
:100B5E000A128A118316031344088312AE008316F9
:100B6E0043088312AD000A168A1129240A128A112B
:100B7E000A168A11C9240A128A112D08B4002E08E9
:100B8E00B5002F08B600DD30B1009C30B200413008
:100B9E00B3000A168A11EC260A128A113108A00037
:100BAE003208A1003308A2000A128A1509250A127A
:100BBE008A1121088316D000831220088316CF00D5
:100BCE00E830F0000330F1005008F3004F08F20057
:100BDE000A128A1163200A128A117108C80070085D
:100BEE00C7004808F1004708F0001830F200FC304A
:100BFE00F3000A128A15F0240A128A117108CC0029
:100C0E007008CB004F08CB070318CC0A5008CC074E
:100C1E006430F000F1014C08F3004B08F2000A12A8
:100C2E008A1163200A128A117108CE007008CD0055
:100C3E004E08F1004D08F0009C30F200FF30F3003A
:100C4E000A128A15F0240A128A117108CC00700853
:100C5E00CB004808F1004708F0001830F200FC30D5
:100C6E00F3000A128A15F0240A128A117008CB07B3
:100C7E000318CC0A7108CC074F08CB070318CC0A0F
:100C8E005008CC070A30F000F1014C08F3004B0875
:100C9E00F2000A128A1163200A128A117108CA0020
:100CAE007008C9004A08F1004908F000F630F20059
:100CBE00FF30F3000A128A15F0240A128A11710805
:100CCE00C6007008C5004E08F1004D08F0009C30BB
:100CDE00F200FF30F3000A128A15F0240A128A116C
:100CEE007008C5070318C60A7108C6074808F10040
:100CFE004708F0001830F200FC30F3000A128A1593
:100D0E00F0240A128A117008C5070318C60A710862
:100D1E00C6074F08C5070318C60A5008C607470876
:100D2E00303E0A128A11F7270A128A112E300A1241
:100D3E008A11F7270A128A1183164D08303E0A12BD
:100D4E008A11F7270A128A1183164908303E0A12B1
:100D5E008A11F7270A128A1183164508303E0A12A5
:100D6E008A11F7270A128A110D300A128A11F727F3
:100D7E000A128A110A300A128A11F7270A128A11E8
:100D8E00FA30F000F1010A168A11AD240A128A1106
:100D9E0083160313C40ABC0A0319BD0AC10A031938
:100DAE00C20A1D2BBF0A0319C00AC30A122B0A1648
:100DBE008A1171240A128A1100300A168A1102242D
:100DCE000A128A11A530F6008030F7000A168A1131
:100DDE007D240A128A110A128A115F200A128A11C0
:100DEE008316BE003E084C3A0319FE2A0A128A11D7
:100DFE000028FF0007308A007F088207052F0A1699
:100E0E008A11292CFF1B132F83137F1883170008B9
:100E1E00840A0319FF0A080007308A000408840AAE
:100E2E0082070034003480343F34CD34CC343D342A
:100E3E00D73423343C34123483343A34B734D13477
:100E4E003834C63427343734383486343534C034E5
:100E5E00D6343334CC342B34323470348934303489
:100E6E00E734DB342E34E5343C341E344234A234C1
:100E7E000D34003480343F34003420344134003497
:100E8E00C834423400347A34443440341C3446344A
:100E9E005034C334473424347434493497341834BA
:100EAE004B34BC34BE344C346B346E344E34033459
:100EBE00153450347934AD346034F33449347134EC
:100ECE0001340034003400340A3400340034003469
:100EDE006434003400340034E83403340034003415
:100EEE001034273400340034A034863401340034F6
:100EFE00403442340F340034803496349834003405
:100F0E000034E134F53405340034CA349A343B34B9
:100F1E004D3465346D346F34723469346134203439
:100F2E004534733463347234693474346134003448
:100F3E0045347334633472346934623469346534DD
:100F4E006E3464346F342E342E342E3400344534E3
:100F5E0073347034653472346134203463346F34D6
:100F6E006D3461346E3464346F3400344D34653412
:100F7E006D346F3472346934613420346C346534BA
:100F8E0069346434613400344C34653479346534F6
:100F9E006E3464346F342E342E342E3400342534B3
:100FAE0031342E3433346634003456343A3400340B
:100FBE00831687150716803094002830831294000C
:100FCE00831691010930930008008316D101D201D6
:100FDE00D301D401D501D60183010A128A11DF296A
:0E0FEE00F00083120C1EF82F70089900080006
:10106A008316B2005730A40083125608D60A8400A9
:10107A000A128A1113270A128A158316B800B808A9
:10108A000319B12C3808253A03194F28320884006D
:10109A003808AD2CAE01AF01AC01AD018312560880
:1010AA0084000A128A1113270A128A15E2240A12E4
:1010BA008A15031C88288316AE01AF0183162F08F0
:1010CA00F1002E08F0000A30F200F301F024831236
:1010DA00560884000A128A1113270A128A157927D8
:1010EA000A128A15AE00D227AF008312D60A560812
:1010FA0084000A128A1113270A128A15E2240A1294
:10110A008A1503186328560884000A128A111327BD
:10111A000A128A152E3A031DC22883162D17831226
:10112A00D60A8316B601B7018312560884000A123A
:10113A008A1113270A128A15E2240A128A15031C35
:10114A00C92883163708F1003608F0000A30F20081
:10115A00F301F0248312560884000A128A11132715
:10116A000A128A1579270A128A15B600D2270A1294
:10117A008A15B7008312D60A99288316B601B701D1
:10118A002D16C9282D15DB2883125608D60A840085
:10119A000A128A1113270A128A158316B800003A0E
:1011AA000319B12C663A0319C72839288312073064
:1011BA00DA0183162D058312DB005A040319122C57
:1011CA0083162D1EEB280630B600B70124088400CA
:1011DA0083130008B300840A0008B400840A0008D4
:1011EA00B5000330A4073308F0003408F1003508CD
:1011FA00F200F301F401F501B6240A128A15031864
:10120A0017293308F0003408F1003508F200622685
:10121A000A128A157008B3007108B4007208B50082
:10122A000330AC04B001B1013508340433040319A6
:10123A00B029B330840000088312DA00840A000857
:10124A00DB00840A0008DC00840A0008DD000F3095
:10125A000310DD0CDC0CDB0CDA0CFF3E031D2D2920
:10126A005B088316B10083125A088316B0008230D5
:10127A00B101B007031CB103FF30B007031CB1036F
:10128A000330F000F1013108F3003008F200F024D5
:10129A007108B1007008B0000A30F600F701310891
:1012AA00F9003008F8000A168A116A260A128A1505
:1012BA007708B1007608B000B11F6729FF30B00780
:1012CA00031CB1033003FF3A0A168A11D8240A1202
:1012DA008A156C270A128A158F2783162508831206
:1012EA00B400831626088312B500831627088312D2
:1012FA00B6000A168A11EC260A128A1531088316D4
:10130A00A500831232088316A600831233088316B7
:10131A00A700CB270A128A158030F301F4003F3068
:10132A00F500B6240A128A150318A029FF30B0075F
:10133A00031CB103B029CB270A128A152030F30106
:10134A00F4004130F500B6240A128A15031CB029AC
:10135A00B00A0319B10A3708803AFF0080307F02C9
:10136A00031DB9290D3036020318E229E72736088A
:10137A000A128A118D200A128A154C08C0004D08DB
:10138A00C1004E08C200831633088312C3008316B5
:10139A0034088312C400831635088312C5006A26EE
:1013AA000A128A1540088316B3008312410883166D
:1013BA00B400831242088316B500E7273108803A41
:1013CA00FF0080307F02031DEC290A303002031827
:1013DA000D2AE72735083404330403194E2A330843
:1013EA0084270A128A1509250A128A152308220453
:1013FA0021042004031D4E2A83163108803AFF0077
:10140A0080307F02031D0B2A02303002031C4E2A51
:10141A00E727CB270A128A157030F3008930F400C7
:10142A004030F500B6240A128A1503181E2AF7302E
:10143A001F2AF830B007031CB10330080A168A11B4
:10144A00D8240A128A156C270A128A15F000340861
:10145A00F1003508F2002508F3002608F4002708F1
:10146A00F500EA250A128A1573088316A300720882
:10147A00A2007108A1007008A0002308AB0022088E
:10148A00AA002108A9002008A800B301B401B501E7
:10149A00892AE727330884270A128A1509250A1296
:1014AA008A155E270A128A158316A8002B08FB00E4
:1014BA002A08FA002908F9002808F8002C270A1235
:1014CA008A1578088312CC007908CD007A08CE00F4
:1014DA00831633088312CF00831634088312D00090
:1014EA00831635088312D100EA270A128A154C0896
:1014FA008316B30083124D088316B40083124E0874
:10150A008316B500B001B101B801B80A4C270A1216
:10151A008A1113270A128A15DB000A128A11132765
:10152A000A128A15DC000A128A1113270A128A156E
:10153A00DD000A128A1113270A128A15DE008316A1
:10154A002B02031DB82A83125D0883162A02031D83
:10155A00B82A83125C0883162902031DB82A83124B
:10156A005B0883162802031CBF2AB80A38080A3AFD
:10157A00031D8B2A360838078312DA0083163708C8
:10158A000318370AB81BFF3E8312DB0083163008A4
:10159A0083125A07DC00831631080318310A8312B2
:1015AA005B07DD005C088316AE0283125D088316B2
:1015BA00031CAF03AF02370836040319E82AFF30C9
:1015CA00AE07031CAF032C080339031DFE2A2F089C
:1015DA00803AFF0080307F02031DF52A01302E0277
:1015EA00031C032BE7273208840020308313800072
:1015FA00B20AFF30AE07031CAF03EC2AE7272C0818
:10160A00033903193A2B320884002D30362B56271A
:10161A000A128A154C270A128A1113270A128A15E6
:10162A00F0000A128A1113270A128A15F1000A1207
:10163A008A1113270A128A15F2000A128A1113272D
:10164A000A128A159A270A128A15A2250A128A15D7
:10165A00A5270A128A1564250A128A15B9270A12B9
:10166A008A15831380008316B20AB803380F0C2B2D
:10167A003108803AFF0080307F02031D462B01307B
:10168A003002031C512BE7273208E0270A128A1579
:10169A00B007031CB1033D2BE7273708803AFF0048
:1016AA0080307F02031D5B2B09303602031C602B3E
:1016BA000830E727622BE7273608B8008312DA00DA
:1016CA00DB01DA1BDB038316B60283125B0883167F
:1016DA00031CB703B70238080319792B32088400B0
:1016EA002E3083138000B20A38080A168A11D824C9
:1016FA000A128A154008B4004108B5004208B6002B
:10170A00831633088F270A168A11EC260A128A15BD
:10171A003108A0003208A1003308A20009250A12E4
:10172A008A155E270A128A15012C56270A128A156B
:10173A004C270A128A1113270A128A15F0000A1274
:10174A008A1113270A128A15F1000A128A1113271D
:10175A000A128A15F2000A128A1113270A128A1526
:10176A009A270A128A15A2250A128A15A5270A1289
:10177A008A1564250A128A15B9270A128A1583134B
:10178A0080008316B20A4C270A128A1113270A12FA
:10179A008A15A0000A128A1113270A128A15A100B3
:1017AA000A128A1113270A128A15A2000A128A112A
:1017BA0013270A128A15A30083162B088312A7007F
:1017CA0083162A088312A600831629088312A50005
:1017DA00831628088312A40064250A128A1523088E
:1017EA008316AB00831222088316AA0083122108EB
:1017FA008316A900831220088316A800B803380F9D
:10180A009A2B37083604031939283208E0270A12B6
:10181A008A15B607031CB703062C83163708360445
:10182A00031D1F2C2B082A04290428040319B60AAD
:10183A000319B70A3808AF270A128A153708803AF7
:10184A0083125C02031D2D2C8316360883125A025A
:10185A000318332CE7273608B8004B2C8316C22707
:10186A000A128A153708803A8312DC005B08803A2C
:10187A005C02031D432C5A088316360203184B2CAC
:10188A00E7273808B600B701B61BB703E7272F08C2
:10189A002E040319582C2C0803390319582CFF302D
:1018AA00AE07031CAF032D1F752C3708803A83122D
:1018BA00DA0083162F08803A83125A02031D682C15
:1018CA0083162E0836020318722CE7273608AE0252
:1018DA003708031CAF03AF02752CE727AE01AF012F
:1018EA003808AF270A128A152F08803A83125C0239
:1018FA00031D832C83162E0883125A020318912C77
:10190A008316C2270A128A15AE0283125B0883164F
:10191A00031CAF03AF02942CE727AE01AF012F08D7
:10192A002E040319A62C3208840020308313800069
:10193A00FF30B20AAE07031CAF032F082E04031DA3
:10194A00982C2C08033903193928320884002D30C1
:10195A0083138000B20A3928320884008313800175
:10196A000800F21FC52C7008003CF0007108031C27
:10197A00710F003CF1007208031C720F803CF200E8
:10198A00F51FD42C7308003CF3007408031C740F71
:10199A00003CF4007508031C750F803CF50080308C
:1019AA00F206F50675087202031D08007408710232
:1019BA00031D0800730870020800F1003A30F001B4
:1019CA0071020318EE2C30307102031CEE2CF00168
:1019DA00F00A700C0800F401F501701CFA2C720868
:1019EA00F4070318F50A7308F5070310F20DF30D4F
:1019FA000310F10CF00C71087004031DF22C750829
:101A0A00F1007408F0000800D9270A128A15031099
:101A1A00250D260DAC00AC08031D182DA001A1014F
:101A2A00A201A3010800D9270A128A151730031048
:101A3A00A60CA50CA40CFF3E031D1C2D2408A70010
:101A4A00A117A2012008A8002108A9002208AA00BB
:101A5A008E30AB01AC02AC1F3F2D2C08803A8F3E72
:101A6A00031C132D0310AB0CAA0CA90CA80CAC0F69
:101A7A00372D4D2D18302C020318132DAC080319DD
:101A8A004D2D0310A80DA90DAA0DAB0DAC03432DC6
:101A9A00270803195B2DA809A909AA09AB09A80AED
:101AAA000319A90A0319AA0A0319AB0A2B08A300E6
:101ABA002A08A2002908A1002808A0000800230873
:101ACA002204210420040319992DFD01FD0AA31BF8
:101ADA00742D0310A00DA10DA20DA30D6B2D2308CB
:101AEA002702031D822D22082602031D822D2108AA
:101AFA002502031D822D20082402031C932D200891
:101B0A00A4022108031C210FA5022208031C220F8C
:101B1A00A6022308031C230FA7020310A30CA20C7E
:101B2A00A10CA00CFD0B742D2708A3002608A20007
:101B3A002508A1002408A0000800F801F901FA010B
:101B4A00FB0173087204710470040319E12DFC018E
:101B5A00FC0AF31BB62D0310F00DF10DF20DF30D77
:101B6A00AD2D0310F80DF90DFA0DFB0D7308770270
:101B7A00031DC92D72087602031DC92D710875024D
:101B8A00031DC92D70087402031CDB2D7008F402B2
:101B9A007108031C710FF5027208031C720FF6021A
:101BAA007308031C730FF70278140310F30CF20C7A
:101BBA00F10CF00CFC0BB62D7B08F3007A08F2004E
:101BCA007908F1007808F00008007008F60071083A
:101BDA00F7007208F8000310770D780D8312A5003C
:101BEA00A508031DFD2DF001F101F201F301080022
:101BFA007308F6007408F7007508F8000310770DEB
:101C0A00780DA400A4080319F82D7F30F117F2010A
:101C1A00F417F501A001A101A201A301A5029830C0
:101C2A002407F600A5021830A4000310A00DA10D88
:101C3A00A20DA30D75087202031D292E74087102E4
:101C4A00031D292E73087002031C372E7308F00235
:101C5A007408031C740FF1027508031C750AF2025A
:101C6A0020140310F00DF10DF20DA40B1A2EA51F6E
:101C7A004B2E2508803A973E031CF82D0310A30C1F
:101C8A00A20CA10CA00CA50F432E592E1830250228
:101C9A000318F82DA5080319592E0310A00DA10D3C
:101CAA00A20DA30DA5034F2E2308F3002208F2006C
:101CBA002108F1002008F00008007208710470047D
:101CCA00031908008030F20608004008C6004108DF
:101CDA00C7004208C8000310470D480DCB0043084F
:101CEA00C6004408C7004508C8000310470D480D40
:101CFA00CA004B0803198D2E4A084B024A080318DA
:101D0A00952EC6004B08C60219304602031C942EB3
:101D1A004308C0004408C1004508C20008004A0838
:101D2A00031908004B084A020318A32E4B08C600E1
:101D3A004A08C60219304602031808000630C900CC
:101D4A00C21BC917C51B4917C117C201C417C50150
:101D5A004A084B020318CA2E0310C30DC40DC50D41
:101D6A00CA034A084B060319C52EC903490807398D
:101D7A000319C52EB12E0310C20CC10CC00CCB0A1C
:101D8A004B084A060319E62EC02E4B084A020318CE
:101D9A00E62E0310C00DC10DC20DCB034A084B0637
:101DAA000319E22EC903490807390319E22ECE2E78
:101DBA000310C50CC40CC30CCA0A4B084A06031DFF
:101DCA00DD2EC91FF12EFF30C006C106C206C00AA9
:101DDA000319C10A0319C20A491FFC2EFF30C306A0
:101DEA00C406C506C30A0319C40A0319C50AC901E8
:101DFA004008C307410803110318410A031DC40719
:101E0A00420803110318420A031DC507C51F182FEC
:101E1A00FF30C306C406C506C30A0319C40A031958
:101E2A00C50AC901C90A4308F0004408F100450877
:101E3A00F2004B08F3004908F4000A168A116927D0
:101E4A007008C0007108C1007208C20008008E3014
:101E5A00FC00FF307B050319392F0310FB0CFA0C29
:101E6A00F90CF80CFC0A2E2F7808F0007908F1001A
:101E7A007A08F2007C08F300F4010A168A1169272D
:101E8A007008F8007108F9007208FA0008003808AA
:101E9A008312DA000310DA0D03105A0D4F3E840044
:101EAA0008000A308312A000A101A201A30183162F
:101EBA00080023088316AB00831222088316AA009F
:101ECA00831221088316A9008312200808004008FB
:101EDA008316A500831241088316A60083124208BE
:101EEA008316A700330808007007DA0000300318C9
:101EFA0001307107DB005A08D03E831608008312AE
:101F0A00A000831634088312A100831635088312B1
:101F1A00A20008008312B100831634088312B200AB
:101F2A00831635088312B3000800F30083162B08C2
:101F3A00F7002A08F6002908F5002808F400080026
:101F4A0073088312A7007208A6007108A50070081A
:101F5A00A40008008312DA00DB01DA1BDB035B084A
:101F6A00803ADC00831608002008303EDB00831626
:101F7A003208840083125B080800031338088312AE
:101F8A00DA00DB01DA1BDB03831608002508F00000
:101F9A002608F1002708F200080083125B080318DC
:101FAA00013EFF3E831608002008A4002108A50070
:101FBA002208A60008008400303083138000FF3016
:101FCA00B20A08008316031308008030CE064F08B1
:101FDA00C0005008C1005108C2004C08C3004D0897
:101FEA00C4004E08C5006A264008CC004108CD004E
:061FFA004208CE000800C1
:102680007030F5230A168A110310780D790D831224
:102690000313A500A508031D522BF001F101F2015F
:1026A000F30108007330F5230A168A110310780D20
:1026B000790DA400A40803194D2B703084008030DC
:1026C000840A840A80047030840A84007330840A87
:1026D000840A840A800184008030840A840A800489
:1026E0007330840A84007F30840A840A840A80015B
:1026F000A001A101A201A301A502A0302407F600B8
:10270000A5022030A40073300310A00DA10DA20D6E
:10271000A30DF5230A168A11703084000008FA0010
:10272000840A0008FB00840A0008FC00840A0008F0
:10273000FD0079087D02031DA72B78087C02031D8C
:10274000A72B77087B02031DA72B76087A02031CB0
:10275000C32B7330F5230A168A1170308400760873
:102760008002840A7708031C770F8002840A7808A5
:10277000031C780F8002840A7908031C790A8002FE
:10278000033084022014703084000310800D840A0A
:10279000800D840A800D840A800DA40B832BA51F55
:1027A000DE2B2508803A9F3E031C4D2B0310A30C03
:1027B000A20CA10CA00CA50FD62BEC2B20302502CF
:1027C00003184D2BA5080319EC2B0310A00DA10D28
:1027D000A20DA30DA503E22B2308F3002208F200AB
:1027E0002108F1002008F000080084000008F6002D
:1027F000840A0008F700840A0008F800840A000828
:10280000F9000800F6008312031309117608F4009A
:102810008030F501F4070318F50A9C2CF6005224C9
:102820000A168A11A0304A240A168A1176084A2408
:102830000A168A1174084A240A168A1175084A244D
:102840000A168A1157240A168A110B30F000F1017A
:10285000AD2C52240A168A11A0304A240A168A1175
:102860002D084A240A168A112E084A240A168A11AB
:102870005C240A168A11A1304A240A168A1161249E
:102880000A168A11AF0069240A168A115724831286
:102890002F080800F00083128C11700893008C1927
:1028A00008004F2C83161114111C0800542C831699
:1028B0001115111D0800592C83169114911C080044
:1028C0005E2C8C118316911583128C1D642C1308B9
:1028D00008008C1183169116111683128C190800AA
:1028E0006D2C83120911F401F40AF5019C240A16D7
:1028F0008A110230F000F101AD2C09157708FF00B4
:10290000760884000A128A1109270A168A110038EB
:10291000031908007708FF00760884000A128A115C
:1029200009270A168A11F400F5019C240A168A1157
:10293000F60A0319F70A7E2CF001F00AF101AD2422
:10294000740E0F39831203138800891489107408D8
:102950000F398800891489100800F201F301730807
:102960007102031DB52C72087002031C0800BE24FE
:102970000A168A11F20A0319F30AAF2C01308316E2
:10298000031381000D30831281000B1DC52C0B1128
:102990000800B000F0008E30F101F201F300F40104
:1029A00069277008AD007108AE007208AF0008001A
:1029B0008312CA00CA1FA42DCA09CA0A4A08803A4B
:1029C000123E031C482D0A30CB270A168A11AF2667
:1029D0000A168A117108F9007008F8006A260A16AA
:1029E0008A11E0271C3E84000A128A1113270A1656
:1029F0008A11B1000A128A1113270A168A11B2002D
:102A00000A128A1113270A168A11E8270A168A1150
:102A1000F81BF9036A260A168A11AF27373E84008D
:102A20000A128A1113270A168A11B4000A128A118F
:102A300013270A168A11B5000A128A1113270A16DB
:102A40008A11B600EC260A168A11BE270A168A11C8
:102A5000F21BF303AF260A168A11A727013E840052
:102A60000A128A1113270A168A11B1000A128A1152
:102A700013270A168A11B2000A128A1113270A169E
:102A80008A11F0270A168A11EC260A168A11B72F26
:102A90004A08803A753E031C8D2D0A30F000F10182
:102AA0004A08F200F301F21BF303AF260A168A115B
:102AB000A727013E84000A128A1113270A168A11D9
:102AC000B1000A128A1113270A168A11B2000A12DB
:102AD0008A1113270A168A11F8270A168A11F81B79
:102AE000F9036A260A168A11AF271C3E84000A12CF
:102AF0008A1113270A168A11B4000A128A111327A1
:102B00000A168A11B5000A128A1113270A168A11A9
:102B1000B600EC260A168A11B72F0330F9004A08CE
:102B20005B27013E84000A128A1113270A168A11B4
:102B3000C0000A128A1113270A168A11C1000A124C
:102B40008A111327C20008004A08803A123E031C6B
:102B50000E2E0A30CB270A168A11AF260A168A11C2
:102B60007108F9007008F8006A260A168A11E02731
:102B7000433E84000A128A1113270A168A11B100F3
:102B80000A128A1113270A168A11B2000A128A1130
:102B900013270A168A11E8270A168A11F81BF90367
:102BA0006A260A168A11AF275E3E84000A128A112D
:102BB00013270A168A11B4000A128A1113270A165B
:102BC0008A11B5000A128A1113270A168A11B60053
:102BD000EC260A168A11BE270A168A11F21BF30385
:102BE000AF260A168A11A727283E84000A128A11E6
:102BF00013270A168A11B1000A128A1113270A161E
:102C00008A11B2000A128A1113270A168A11F027B4
:102C10000A168A11EC260A168A11B72F4A08803A3A
:102C2000753E031C532E0A30F000F1014A08F200F1
:102C3000F301F21BF303AF260A168A11A727283ED9
:102C400084000A128A1113270A168A11B1000A1287
:102C50008A1113270A168A11B2000A128A11132741
:102C60000A168A11F8270A168A11F81BF9036A2630
:102C70000A168A11AF27433E84000A128A111327CD
:102C80000A168A11B4000A128A1113270A168A1129
:102C9000B5000A128A1113270A168A11B600EC260B
:102CA0000A168A11B72F0330F9004A085B27283E1D
:102CB00084000A128A1113270A168A11C0000A1208
:102CC0008A1113270A168A11C1000A128A111327C2
:102CD000C2000800FB01F71F742EF609F709F60A77
:102CE0000319F70AFB01FB0AF91F7D2EF809F90900
:102CF000F80A0319F90A0130FB06FC01FD01770807
:102D000076040319A22EFA01FA0AF71B8B2E031080
:102D1000F60DF70D842E0310FC0DFD0D77087902DA
:102D2000031D942E76087802031C9E2E7608F80266
:102D30007708031CF903F9027C140310F70CF60C56
:102D4000FA0B8B2E7B080319AA2EFC09FD09FC0A3D
:102D50000319FD0A7D08F7007C08F6000800F5015C
:102D6000F31FB92EF209F309F20A0319F30AF50168
:102D7000F50AF11FC02EF009F109F00A0319F10A52
:102D8000710870040319DF2EF401F40AF11BCC2E34
:102D90000310F00DF10DC52E71087302031DD22E24
:102DA00070087202031CDB2E7008F2027108031C0B
:102DB000F303F3020310F10CF00CF40BCC2E7508A6
:102DC0000319E72EF209F309F20A0319F30A73084B
:102DD000F1007208F00008003108B7003208B800AE
:102DE0003308B9000310380D390DBA00BA08031DB5
:102DF000FD2EB101B201B30108003408B700350857
:102E0000B8003608B9000310380D390DBF00BF08EF
:102E1000031D0E2FB101B201B30108003F087B3E34
:102E2000BA073308BF003608BF068030BF05073039
:102E3000B217B517B601BB01BC01BD01BE00311C04
:102E4000292F3408D6270A168A110318360A031DBB
:102E5000BD070310B30CB20CB10C0310B40DB50DCB
:102E6000B60DBE0B1F2F0930BE00311C3F2F34089A
:102E7000D6270A168A110318360A031DBD07031048
:102E8000B30CB20CB10C0310BD0CBC0CBB0CBE0BD4
:102E9000352F3B08F0003C08F1003D08F2003A08ED
:102EA000F3003F08F40069277008B1007108B20010
:102EB0007208B3000800FB00FA0179087B18FA07D2
:102EC0000310F90D0310FB0CFB08031D5D2F7A089E
:102ED000080073080319712F720871047004031D30
:102EE0007A2FF001F101F2010800F30A0310F20C4D
:102EF000F10CF00CFE3072050319892F752FF30ABF
:102F0000F00A0319F10A0319F20A0310F20CF10C8A
:102F1000F00CFF3072050319932F7F2FF30303107A
:102F2000F00DF10DF20DF11F8E2F731CF113031034
:102F3000F30C7308F700F601F5017508F004760844
:102F4000F1047708F2047408031DF21708007008F2
:102F5000C3007108C400430843074307080076080C
:102F6000C5007708C6004508450745070800310831
:102F7000C0003208C1003308C20008003108C70091
:102F80003208C8003308C9000A30F000F1014A08CD
:102F9000F200F3010800F600F7014A08F200F3011D
:102FA000F21BF3036430F000F1010800BB073508A1
:102FB00003110318350A031DBC0736080311080066
:102FC0007608C3007708C400430843074307080096
:102FD000B3006430F600F7014A08F800F901080070
:102FE000B3004708B4004808B5004908B600080017
:102FF000B3000A30F600F7014A08F800F9010800AA
:04400E00D4E8FFFFF4
:00000001FF
