:100000000A128A11992B00308A000408840A820798
:100010000034013400340A34003464340034E834E9
:100020000334103427344D346F34733474347234E1
:1000300061346E3464346F34203445347334633443
:100040007234693474347534723461342034003459
:100050004D346F3473347434723461346E346434B8
:100060006F3420344C3465346334743475347234F2
:10007000613420340034543461346D3461346E346E
:1000800069346F34203464346534203463346E341E
:10009000743420342534693400344434693472347F
:1000A0006534633474346F34723469346F343A3481
:1000B00020342534643420340034443469347234B8
:1000C0006534633474346F34723469346F343A3461
:1000D0002034253469342034003447347234613498
:1000E000623461346E3464346F342E342E342E34E2
:1000F0002E342E340034563461346C346F34723400
:100100003A34203425346434203400345634613495
:100110006C346F3472343A342034253469342034EA
:020120000034A9
:1007320083010A128A117C2DF000831203130C1E0E
:100742009E2B7008990008008316031788018901FF
:100752008312870188018B01080083160313383046
:100762008715071683129400831691012730930090
:100772001417941783128C118D1108000130851300
:10078200DE2BF2008513803EDE2BF2008517720805
:1007920084000A128A1103200A128A1100380319EE
:1007A2000800720884000A128A1103200A128A11B0
:1007B200DE230A128A11F20AC82BF000700E0F39DA
:1007C200E7230A128A117008E7230800F1000F30AC
:1007D200F105F03088057108880705170513080030
:1007E200F9002C240A128A11A03026240A128A1136
:1007F200790826240A128A11780826240A128A11F4
:100802005C240A128A110B30F000F101F201F301AB
:10081200622CF9002C240A128A11A03026240A1212
:100822008A11790826240A128A115F240A128A116F
:10083200A13026240A128A1100302F240A128A11AA
:100842007508FA005C247A080800F5004824750847
:10085200831293000800482411140800F70048246A
:100862000A128A11911548240A128A118312130856
:10087200F80048240A128A1177080319422C9112AF
:10088200432C911611167808F500F60108000310A2
:10089200831614190314003003180130F0001F30BE
:1008A200F1011105F2007004F3007108F400730401
:1008B20003190800482C48241115080048249114F3
:1008C2000800F401F40AF501F601F7017708730252
:1008D200031D752C76087202031D752C75087102B2
:1008E200031D752C74087002031C080082240A126E
:1008F2008A11F40A0319F50A0319F60A0319F70A09
:10090200672C03308316031381000D30831281009C
:100912000B1D892C0B110800AA002130A30020080E
:10092200A00A84000A128A1103200A128A11AB005B
:10093200AB080319232D2B08253A0319A52C2A08E5
:1009420076250A128A11902CA4012008A00A84009C
:100952000A128A1103200A128A11AB00003A031903
:10096200232D643A0319B92C0D3A0319B92C902C92
:100972002308840083130008A600840A0008A70045
:10098200A30AA30AA71FCC2C0330A404A609A70913
:10099200A60A0319A70AAB01AB0A03102B0D013EED
:1009A20084000A128A1103200A128A11FC000A1218
:1009B2008A1103200A128A11FD002702031DE32C6B
:1009C2007C082602031CEA2CAB0A2B08053A031DFD
:1009D200CE2C240803390319F42C2A0884002D3064
:1009E20083138000AA0A2B08A5001F2D0A30F700E6
:1009F200F8010310250D013E84000A128A1103201A
:100A02000A128A11F0000A128A1103200A128A11AC
:100A1200F1002708F3002608F20028250A128A119D
:100A22007108FA007008F90052250A128A11770833
:100A3200303EAB002A0876250A128A11A503250F3B
:100A4200F72C902C2A088400831380010800F401FB
:100A5200F5017108700403194D2DF601F60AF11B18
:100A6200362D0310F00DF10D2F2D0310F40DF50DA1
:100A720071087302031D3F2D70087202031C492D79
:100A82007008F2027108031CF303F30274140310DA
:100A9200F10CF00CF60B362D7508F1007408F0001D
:100AA2000800780877040319712DFB01FB0AF81B73
:100AB2005E2D0310F70DF80D572D78087A02031DED
:100AC200642D77087902031C6D2D7708F9027808E6
:100AD200031CFA03FA020310F80CF70CFB0B5E2D51
:100AE2007A08F8007908F700080084002B088313BD
:100AF2008000AA0A08000A128A11A5230A128A1182
:100B02000A128A11AE230A128A1183160317880168
:100B120089018312031386018316860185018801E8
:100B220083120F30851305138910F000F101F201D1
:100B3200F3010A128A1162240A128A110330831203
:100B4200031388000A3005170513F000F101F201C2
:100B5200F3010A128A1162240A128A118312031300
:100B62000A3005170513F000F101F201F3010A1230
:100B72008A1162240A128A11831203130A3005179A
:100B82000513F000F101F201F3010A128A11622445
:100B92000A128A11023083120313880028300517C3
:100BA20005130A128A11DE230A128A110C300A1264
:100BB2008A11DE230A128A110A128A11BF230A122B
:100BC2008A1106300A128A11DE230A128A1183164A
:100BD2007030871707138F000C3099009030831202
:100BE2009800203083169800031787010030F30025
:100BF200F2000130F100F430F0000A128A1162248E
:100C02000A128A110130831203138500FF30850016
:100C12000D300A128A119D230A128A110A300A1211
:100C22008A119D230A128A116130BC00BD01831210
:100C320003133C080A128A119D230A128A111430E6
:100C4200F000F101F201F3010A128A1162240A1280
:100C52008A1183120313BC0A0319BD0A3D08803AA4
:100C6200FF0080307F02031D382E7B303C02031CC4
:100C7200182E0D300A128A119D230A128A110A3087
:100C82000A128A119D230A128A110D300A128A1140
:100C92009D230A128A110A300A128A119D230A120E
:100CA2008A110B30A0002C300A128A118D240A12EC
:100CB2008A11BE013E082C3E840000080A128A11E5
:100CC2009D230A128A111430BE0A3E02031C5B2EB7
:100CD200C830F000F101F201F3010A128A11622414
:100CE2000A128A110D300A128A119D230A128A11E0
:100CF2000A300A128A119D230A128A11C5010A12A8
:100D02008A11BF230A128A1100300A128A11C223E1
:100D12000A128A1165300A128A11C6230A128A112E
:100D22003330A0002C30A101A10AA2010A128A11BB
:100D32008D240A128A11BF013F082C3E840000084C
:100D42000A128A119D230A128A111430BF0A3F0225
:100D5200031C9D2EC830F000F101F201F3010A12CA
:100D62008A1162240A128A110D300A128A119D23F5
:100D72000A128A110A300A128A119D230A128A1152
:100D8200153083120313450203183E2F45080A3E0D
:100D920086000130F301F201F1002C30F0000A125A
:100DA2008A1162240A128A118312031345080A3C2B
:100DB200F80045080A128A11F1230A128A114530F5
:100DC20083120313A0004508A1002C30A2010A12CD
:100DD2008A118D240A128A11C00140082C3E840017
:100DE20000080A128A119D230A128A110F30C00AC2
:100DF2004002031CEE2E0D300A128A119D230A12A4
:100E02008A110A300A128A119D230A128A1173303A
:100E1200A00045080A3EA100003003180130A200DC
:100E22002C300A128A118D240A128A11C10141083A
:100E32002C3E840000080A128A119D230A128A118C
:100E42000A30C10A4102031C182F0D300A128A11FE
:100E52009D230A128A110A300A128A119D230A124C
:100E62008A116430C50AF000F101F201F3010A129D
:100E72008A1162240A128A11C12E0D300A128A11B5
:100E82009D230A128A110A300A128A119D230A121C
:100E92008A112030A0002C300A128A118D240A12E5
:100EA2008A11C20142082C3E840000080A128A11EB
:100EB2009D230A128A111230C20A4202031C532FC6
:100EC2006430F000F101F201F3010A128A11622486
:100ED2000A128A110D300A128A119D230A128A11EE
:100EE2000A300A128A119D230A128A11C50115308D
:100EF20045020318FD2F45080A128A110A240A1214
:100F02008A118312BB0045080A128A110A240A12A6
:100F12008A11831286000130F301F201F1002C30B4
:100F2200F0000A128A1162240A128A1155308312C1
:100F32000313A0004508A1002C30A2010A128A1155
:100F42008D240A128A11C30143082C3E8400000832
:100F52000A128A119D230A128A111030C30A43020F
:100F6200031CA52F0D300A128A119D230A128A1121
:100F72000A300A128A119D230A128A117E30A000B9
:100F82003B08A1002C30A2010A128A118D240A12F8
:100F92008A11C40144082C3E840000080A128A11F6
:100FA2009D230A128A110A30C40A4402031CCB2F61
:100FB2006430F000F101F201F3010A128A11622495
:100FC2000A128A110D300A128A119D230A128A11FD
:100FD2000A300A128A119D230A128A11FF30F00088
:100FE200F101F201F3010A128A1162240A128A1132
:0E0FF20083120313C50A782F0A128A110028F1
:04400E00D4E0FFFFFC
:00000001FF
