:100000000A128A119A2B00308A000408840A820797
:100010000034013400340A34003464340034E834E9
:100020000334103427344D346F34733474347234E1
:1000300061346E3464346F34203445347334633443
:100040007234693474347534723461342034003459
:100050004D346F3473347434723461346E346434B8
:100060006F3420344C3465346334743475347234F2
:10007000613420340034543461346D3461346E346E
:1000800069346F34203464346534203463346E341E
:10009000743420342534693400344434693472347F
:1000A0006534633474346F34723469346F343A3481
:1000B00020342534643420340034443469347234B8
:1000C0006534633474346F34723469346F343A3461
:1000D0002034253469342034003447347234613498
:1000E000623461346E3464346F342E342E342E34E2
:1000F0002E342E340034563461346C346F34723400
:100100003A34203425346434203400345634613495
:100110006C346F3472343A342034253469342034EA
:020120000034A9
:1007340083010A128A117D2DF000831203130C1E0B
:100744009F2B7008990008008316031788018901FC
:100754008312870188018B01080083160313383044
:10076400871507168312940083169101273093008E
:100774001417941783128C118D11080001308513FE
:10078400DF2BF2008513803EDF2BF2008517720801
:1007940084000A128A1103200A128A1100380319EC
:1007A4000800720884000A128A1103200A128A11AE
:1007B400DF230A128A11F20AC92BF000700E0F39D6
:1007C400E8230A128A117008E8230800F1000F30A8
:1007D400F105F0308805710888070517051308002E
:1007E400F9002D240A128A11A03027240A128A1132
:1007F400790827240A128A11780827240A128A11F0
:100804005D240A128A110B30F000F101F201F301A8
:10081400632CF9002D240A128A11A03027240A120D
:100824008A11790827240A128A1160240A128A116B
:10083400A13027240A128A11003030240A128A11A6
:100844007508FA005D247A080800F5004924750843
:10085400831293000800492411140800F700492466
:100864000A128A11911549240A128A118312130853
:10087400F80049240A128A1177080319432C9112AB
:10088400442C911611167808F500F601080003109F
:10089400831614190314003003180130F0001F30BC
:1008A400F1011105F2007004F3007108F4007304FF
:1008B40003190800492C49241115080049249114EE
:1008C4000800F401F40AF501F601F7017708730250
:1008D400031D762C76087202031D762C75087102AE
:1008E400031D762C74087002031C080083240A126A
:1008F4008A11F40A0319F50A0319F60A0319F70A07
:10090400682C03308316031381000D308312810099
:100914000B1D8A2C0B110800AA002130A30020080B
:10092400A00A84000A128A1103200A128A11AB0059
:10093400AB080319242D2B08253A0319A62C2A08E1
:1009440077250A128A11912CA4012008A00A840098
:100954000A128A1103200A128A11AB00003A031901
:10096400242D643A0319BA2C0D3A0319BA2C912C8C
:100974002308840083130008A600840A0008A70043
:10098400A30AA30AA71FCD2C0330A404A609A70910
:10099400A60A0319A70AAB01AB0A03102B0D013EEB
:1009A40084000A128A1103200A128A11FC000A1216
:1009B4008A1103200A128A11FD002702031DE42C68
:1009C4007C082602031CEB2CAB0A2B08053A031DFA
:1009D400CF2C240803390319F52C2A0884002D3060
:1009E40083138000AA0A2B08A500202D0A30F700E3
:1009F400F8010310250D013E84000A128A11032018
:100A04000A128A11F0000A128A1103200A128A11AA
:100A1400F1002708F3002608F20029250A128A119A
:100A24007108FA007008F90053250A128A11770830
:100A3400303EAB002A0877250A128A11A503250F38
:100A4400F82C912C2A088400831380010800F401F7
:100A5400F5017108700403194E2DF601F60AF11B15
:100A6400372D0310F00DF10D302D0310F40DF50D9D
:100A740071087302031D402D70087202031C4A2D75
:100A84007008F2027108031CF303F30274140310D8
:100A9400F10CF00CF60B372D7508F1007408F0001A
:100AA4000800780877040319722DFB01FB0AF81B70
:100AB4005F2D0310F70DF80D582D78087A02031DE9
:100AC400652D77087902031C6E2D7708F9027808E2
:100AD400031CFA03FA020310F80CF70CFB0B5F2D4E
:100AE4007A08F8007908F700080084002B088313BB
:100AF4008000AA0A08000A128A11A6230A128A117F
:100B04000A128A11AF230A128A1183160317880165
:100B140089018312031386018316860185018801E6
:100B240083120F30851305138910F000F101F201CF
:100B3400F3010A128A1163240A128A110330831200
:100B4400031388000A3005170513F000F101F201C0
:100B5400F3010A128A1163240A128A1183120313FD
:100B64000A3005170513F000F101F201F3010A122E
:100B74008A1163240A128A11831203130A30051797
:100B84000513F000F101F201F3010A128A11632442
:100B94000A128A11023083120313880028300517C1
:100BA40005130A128A11DF230A128A110C300A1261
:100BB4008A11DF230A128A110A128A11C0230A1227
:100BC4008A1106300A128A11DF230A128A11831647
:100BD4007030871707138F000C3099009030831200
:100BE4009800203083169800031787010030F30023
:100BF400F2000130F100F430F0000A128A1163248B
:100C04000A128A110130831203138500FF30850014
:100C14000D300A128A119E230A128A110A300A120E
:100C24008A119E230A128A116130BC00BD0183120D
:100C340003133C080A128A119E230A128A111430E3
:100C4400F000F101F201F3010A128A1163240A127D
:100C54008A1183120313BC0A0319BD0A3D08803AA2
:100C6400FF0080307F02031D392E7B303C02031CC1
:100C7400192E0D300A128A119E230A128A110A3083
:100C84000A128A119E230A128A110D300A128A113D
:100C94009E230A128A110A300A128A119E230A120A
:100CA4008A110B30A0002C300A128A118E240A12E9
:100CB4008A11BE013E082C3E840000080A128A11E3
:100CC4009E230A128A111430BE0A3E02031C5C2EB3
:100CD400C830F000F101F201F3010A128A11632411
:100CE4000A128A110D300A128A119E230A128A11DD
:100CF4000A300A128A119E230A128A11C5010A12A5
:100D04008A11C0230A128A1100300A128A11C323DD
:100D14000A128A1165300A128A11C7230A128A112B
:100D24003330A0002C30A101A10AA2010A128A11B9
:100D34008E240A128A11BF013F082C3E8400000849
:100D44000A128A119E230A128A111430BF0A3F0222
:100D5400031C9E2EC830F000F101F201F3010A12C7
:100D64008A1163240A128A110D300A128A119E23F1
:100D74000A128A110A300A128A119E230A128A114F
:100D8400153083120313450203183E2F45080A3E0B
:100D940086000130F301F201F1002C30F0000A1258
:100DA4008A1163240A128A110A30F8008312031389
:100DB40045080A128A11F2230A128A114530831255
:100DC4000313A0004508A1002C30A2010A128A11C5
:100DD4008E240A128A11C00140082C3E84000008A7
:100DE4000A128A119E230A128A110F30C00A400285
:100DF400031CEE2E0D300A128A119E230A128A1148
:100E04000A300A128A119E230A128A117330A00032
:100E140045080A3EA100003003180130A2002C301E
:100E24000A128A118E240A128A11C10141082C3E29
:100E3400840000080A128A119E230A128A110A30B9
:100E4400C10A4102031C182F0D300A128A119E2375
:100E54000A128A110A300A128A119E230A128A116E
:100E64006430C50AF000F101F201F3010A128A119B
:100E740063240A128A11C22E0D300A128A119E238B
:100E84000A128A110A300A128A119E230A128A113E
:100E94002030A0002C300A128A118E240A128A11E2
:100EA400C20142082C3E840000080A128A119E23C3
:100EB4000A128A111230C20A4202031C532F6430F0
:100EC400F000F101F201F3010A128A1163240A12FB
:100ED4008A110D300A128A119E230A128A110A30CD
:100EE4000A128A119E230A128A11C501153045027D
:100EF4000318FD2F45080A128A110B240A128A11BD
:100F04008312BB0045080A128A110B240A128A11A3
:100F1400831286000130F301F201F1002C30F0005D
:100F24000A128A1163240A128A1155308312031398
:100F3400A0004508A1002C30A2010A128A118E24B7
:100F44000A128A11C30143082C3E840000080A12C5
:100F54008A119E230A128A111030C30A4302031C09
:100F6400A52F0D300A128A119E230A128A110A3003
:100F74000A128A119E230A128A117E30A0003B08AD
:100F8400A1002C30A2010A128A118E240A128A119D
:100F9400C40144082C3E840000080A128A119E23CE
:100FA4000A128A110A30C40A4402031CCB2F64308B
:100FB400F000F101F201F3010A128A1163240A120A
:100FC4008A110D300A128A119E230A128A110A30DC
:100FD4000A128A119E230A128A11FF30F000F101CD
:100FE400F201F3010A128A1163240A128A1183128C
:0C0FF4000313C50A782F0A128A11002886
:04400E00D4E0FFFFFC
:00000001FF
