:060000000A128A115228C9
:10007A00F000831203130C1E3E2870089900080032
:10008A00831687150716803094002830831294004F
:10009A00831691010930930008008316D001D1011B
:1000AA00D201D301D401D501D601D701D801D90192
:1000BA0083010A128A159C298316B1005330A400C1
:1000CA0083125208D20A84000A168A110A200A12D6
:1000DA008A118316B400B4080319FC2D3408253A92
:1000EA0003197E2831088400340883138000B10A7A
:1000FA006528AA01AB01A801A9018312520884004C
:10010A000A168A110A200A128A116B260A128A1101
:10011A00031CB7288316AA01AB0183162B08F1002A
:10012A002A08F0000A30F200F301792683125208F5
:10013A0084000A168A110A200A128A1197270A12BB
:10014A008A11AA00DB27AB008312D20A5208840064
:10015A000A168A110A200A128A116B260A128A11B1
:10016A0003189228520884000A168A110A200A12D1
:10017A008A112E3A031DF128831629178312D20AEF
:10018A008316B201B3018312520884000A168A1137
:10019A000A200A128A116B260A128A11031C722972
:1001AA0083163308F1003208F0000A30F200F30136
:1001BA0079268312520884000A168A110A200A1222
:1001CA008A1197270A128A11B200DB270A128A11AA
:1001DA00B3008312D20AC8288316B201B3012916C2
:1001EA00722929158D292408840083130008B50073
:1001FA00B601A40A3604031D0629A930B5008030C9
:10020A00B600B701B8013708350784003608031865
:10021A00360A8312FF000A168A1100200A128A116E
:10022A00003803191D298316B70A0319B80A0829C1
:10023A0083163308320403192E2938083302031DA2
:10024A0028293708320203182E293308B800320841
:10025A00B7002B083802031D34292A08370203186D
:10026A003D293708AA023808031CAB03AB023F2911
:10027A00AA01AB01FF30AA07031CAB032A0A031920
:10028A002B0A031966293108F7270A128A113F290E
:10029A0036088312FF0083163508840083120A1673
:1002AA008A1100200A128A11D600831631088400A6
:1002BA0083125608831380008316B50A0319B60AF7
:1002CA00B10A0130B7020030031CB803B802370A7A
:1002DA000319380A031965284D2983125208D20ACC
:1002EA0084000A168A110A200A128A118316B40097
:1002FA00003A0319FC2D643A03198D29023A0319AD
:10030A00F6280F3A03198D291A3A0319F82865288D
:10031A0083120730D601831629058312D7005604A3
:10032A000319C12C8316291E9D290630B200B30178
:10033A002408840083130008AE00840A0008AF0072
:10034A00840A0008B0000330A4072E08F0002F0822
:10035A00F1003008F200F301F401F5013F260A1218
:10036A008A110318C9292E08F0002F08F100300855
:10037A00F20035270A128A117008AE007108AF0020
:10038A007208B0000330A804AC01AD0130082F0494
:10039A002E0403195F2AAE308400F0270A128A114C
:1003AA00840A0008D800840A0008D9000F30031014
:1003BA00D90CD80CD70CD60CFF3E031DDC295708E4
:1003CA008316AD00831256088316AC008230AD0145
:1003DA00AC07031CAD03FF30AC07031CAD030330AD
:1003EA00F000F1012D08F3002C08F20079267108BB
:1003FA00AD007008AC000A30F600F7012D08F900CC
:10040A002C08F8000A128A156A260A128A11770835
:10041A00AD007608AC00AD1F162AFF30AC07031CEE
:10042A00AD032C03FF3A0A128A15D8240A128A113C
:10043A008A270A128A11AD27831625088312B0006B
:10044A00831626088312B100831627088312B20086
:10045A000A128A15EC260A128A112D088316A5009B
:10046A0083122E088316A60083122F088316A7006C
:10047A00D4270A128A118030F301F4003F30F500C4
:10048A003F260A128A1103184F2AFF30AC07031CB1
:10049A00AD035F2AD4270A128A112030F301F4002F
:1004AA004130F5003F260A128A11031C5F2AAC0A62
:1004BA000319AD0A3308803AFF0080307F02031D1A
:1004CA00682A0D3032020318932AFD2732080A12CD
:1004DA008A154A200A128A114808BC004908BD0038
:1004EA004A08BE0083162E088312BF0083162F08FF
:1004FA008312C000831630088312C1000A168A11BB
:10050A003E270A128A113C088316AE0083123D0860
:10051A008316AF0083123E088316B000FD272D080C
:10052A00803AFF0080307F02031D9D2A0A302C0288
:10053A000318BE2AFD2730082F042E040319FF2AA8
:10054A002E08A2270A128A1192260A128A11230851
:10055A00220421042004031DFF2A83162D08803A51
:10056A00FF0080307F02031DBC2A02302C02031CCC
:10057A00FF2AFD27D4270A128A117030F300893026
:10058A00F4004030F5003F260A128A110318CF2AD8
:10059A00F730D02AF830AC07031CAD032C080A1236
:1005AA008A15D8240A128A118A27F0002F08F10026
:1005BA003008F2002508F3002608F4002708F500A1
:1005CA000A168A1146250A128A1173088316A3008D
:1005DA007208A2007108A1007008A0002308B800E0
:1005EA002208B7002108B6002008B500AE01AF0105
:1005FA00B0013A2BFD272E08A2270A128A11922649
:10060A000A128A117C278316B5003808FB003708BE
:10061A00FA003608F9003508F8000A128A15BA24D1
:10062A000A128A1178088312C8007908C9007A0860
:10063A00CA0083162E088312CB0083162F08831252
:10064A00CC00831630088312CD003D270A128A1186
:10065A0048088316AE00831249088316AF00831236
:10066A004A088316B000AC01AD01B401B40A55279B
:10067A000A168A110A200A128A11D7000A168A1142
:10068A000A200A128A11D8000A168A110A200A12A6
:10069A008A11D9000A168A110A200A128A11DA0066
:1006AA0083163802031D692B8312590883163702F1
:1006BA00031D692B8312580883163602031D692B02
:1006CA008312570883163502031C702BB40A3408A8
:1006DA000A3A031D3C2B320834078312D6008316CC
:1006EA0033080318330AB41BFF3E8312D70083165C
:1006FA002C0883125607D80083162D0803182D0AD2
:10070A0083125707D90058088316AA028312590878
:10071A008316031CAB03AB02330832040319992B6B
:10072A00FF30AA07031CAB0328080339031DAD2BAE
:10073A002B08803AFF0080307F02031DA62B013070
:10074A002A02031CB22BFD273108F7270A128A1145
:10075A00FF30AA07031CAB039D2BFD27280803398A
:10076A000319E92B310884002D30E52B5F270A1283
:10077A008A1155270A168A110A200A128A11F000CC
:10078A000A168A110A200A128A11F1000A168A1117
:10079A000A200A128A11F2000A168A110A200A127B
:1007AA008A1167270A128A11ED260A128A117227FC
:1007BA000A128A1101260A128A11C2270A128A11FA
:1007CA00831380008316B10AB403340FBB2B2D08A0
:1007DA00803AFF0080307F02031DF52B01302C0286
:1007EA00031C002CFD273108E9270A128A11AC07DD
:1007FA00031CAD03EC2BFD273308803AFF00803041
:10080A007F02031D0A2C09303202031C0F2C083008
:10081A00FD27112CFD273208B4008312D600D70118
:10082A00D61BD7038316B202831257088316031CFA
:10083A00B303B30234080319282C310884002E307C
:10084A0083138000B10A34080A128A15D8240A12BE
:10085A008A113C08B0003D08B1003E08B200831678
:10086A002E08AD270A128A15EC260A128A112D08BB
:10087A00A0002E08A1002F08A20092260A128A11AF
:10088A007C270A128A11B02C5F270A128A1155276F
:10089A000A168A110A200A128A11F0000A168A1107
:1008AA000A200A128A11F1000A168A110A200A126B
:1008BA008A11F2000A168A110A200A128A11672777
:1008CA000A128A11ED260A128A1172270A128A114D
:1008DA0001260A128A11C2270A128A11831380007A
:1008EA008316B10A55270A168A110A200A128A1192
:1008FA00A0000A168A110A200A128A11A1000A16F1
:10090A008A110A200A128A11A2000A168A110A20DA
:10091A000A128A11A300831638088312A7008316C5
:10092A0037088312A600831636088312A500831699
:10093A0035088312A40001260A128A112308831695
:10094A00B800831222088316B7008312210883167F
:10095A00B600831220088316B500B403340F492C5D
:10096A0033083204031965283108E9270A128A1163
:10097A00B207031CB303B52C83162408840083131F
:10098A00F0270A128A1156088316B50083125708EF
:10099A008316B6000030B61BFF30B700B800A40AB1
:1009AA00A40AB81FE52C0330A804B509B609B7098B
:1009BA00B809B50A0319B60A0319B70A0319B80A16
:1009CA0033083204031DF12C380837043604350481
:1009DA000319B20A0319B30AB401B40A55270A164D
:1009EA008A110A200A128A11D7000A168A110A20C5
:1009FA000A128A11D8000A168A110A200A128A11C2
:100A0A00D9000A168A110A200A128A11DA008316F4
:100A1A003802031D202D8312590883163702031D3D
:100A2A00202D8312580883163602031D202D8312A7
:100A3A00570883163502031C272DB40A34080A3ACC
:100A4A00031DF32C3408B8270A128A113308803A96
:100A5A0083125802031D352D83163208831256025B
:100A6A0003183B2DFD273208B400532D8316CB27DC
:100A7A000A128A113308803A8312D8005708803A3A
:100A8A005802031D4B2D5608831632020318532DA4
:100A9A00FD273408B200B301B21BB303FD272B08AC
:100AAA002A040319602D280803390319602DFF3021
:100ABA00AA07031CAB03291F7D2D3308803A831232
:100ACA00D60083162B08803A83125602031D702D16
:100ADA0083162A08320203187A2DFD273208AA0241
:100AEA003308031CAB03AB027D2DFD27AA01AB0122
:100AFA003408B8270A128A112B08803A831258023E
:100B0A00031D8B2D83162A08831256020318992D6A
:100B1A008316CB270A128A11AA0283125708831650
:100B2A00031CAB03AB029C2DFD27AA01AB012B08CA
:100B3A002A040319AE2D3108840020308313800063
:100B4A00FF30B10AAA07031CAB032B082A04031DB2
:100B5A00A02D280803390319B82D310884002D3037
:100B6A0083138000B10AFF30B207031CB303320AB1
:100B7A000319330A031965280A308312A000A10158
:100B8A00A201A301831632088312D6000310D60DE0
:100B9A000310560D4F3E84000A168A110A200A12C3
:100BAA008A11F0000A168A110A200A128A11F10023
:100BBA000A168A110A200A128A11F2000A168A11E2
:100BCA000A200A128A1167270A128A11ED260A12C6
:100BDA008A1172270A128A1101260A128A1120081A
:100BEA00303E8316B400310884003408B52D31082C
:100BFA0084008313800108002308220421042004AE
:100C0A000319362EFD01FD0AA31B112E0310A00D98
:100C1A00A10DA20DA30D082E23082702031D1F2EC6
:100C2A0022082602031D1F2E21082502031D1F2E3E
:100C3A0020082402031C302E2008A4022108031CC9
:100C4A00210FA5022208031C220FA6022308031C57
:100C5A00230FA7020310A30CA20CA10CA00CFD0BDE
:100C6A00112E2708A3002608A2002508A10024089F
:100C7A00A0000800F21F4E2E7008003CF000710818
:100C8A00031C710F003CF1007208031C720F803CB8
:100C9A00F200F51F5D2E7308003CF3007408031C74
:100CAA00740F003CF4007508031C750F803CF500B6
:100CBA008030F206F50675087202031D08007408F2
:100CCA007102031D0800730870020800F1003A302F
:100CDA00F00171020318772E30307102031C772E4F
:100CEA00F001F00A700C0800F401F501701C832E63
:100CFA007208F4070318F50A7308F5070310F20DD2
:100D0A00F30D0310F10CF00C71087004031D7B2E17
:100D1A007508F1007408F0000800E2270A128A1127
:100D2A000310250D260DAC00AC08031DA12EA00151
:100D3A00A101A201A3010800E2270A128A111730B1
:100D4A000310A60CA50CA40CFF3E031DA52E240817
:100D5A00A700A117A2012008A8002108A9002208BB
:100D6A00AA008E30AB01AC02AC1FC82E2C08803A08
:100D7A008F3E031C9C2E0310AB0CAA0CA90CA80CCA
:100D8A00AC0FC02ED62E18302C0203189C2EAC089D
:100D9A000319D62E0310A80DA90DAA0DAB0DAC038D
:100DAA00CC2E27080319E42EA809A909AA09AB0918
:100DBA00A80A0319A90A0319AA0A0319AB0A2B08D4
:100DCA00A3002A08A2002908A1002808A0000800F8
:100DDA00F801F901FA01FB01730872047104700445
:100DEA0003192C2FFC01FC0AF31B012F0310F00D31
:100DFA00F10DF20DF30DF82E0310F80DF90DFA0DA1
:100E0A00FB0D73087702031D142F72087602031D67
:100E1A00142F71087502031D142F70087402031C25
:100E2A00262F7008F4027108031C710FF50272086C
:100E3A00031C720FF6027308031C730FF70278146F
:100E4A000310F30CF20CF10CF00CFC0B012F7B08D5
:100E5A00F3007A08F2007908F1007808F000080037
:100E6A00720871047004031908008030F206080041
:100E7A008030CA064B08BC004C08BD004D08BE00B5
:100E8A004808BF004908C0004A08C1000A168A116A
:100E9A003E273C08C8003D08C9003E08CA000800B1
:100EAA0034088312D6000310D60D0310560D4F3E98
:100EBA00840008000A308312A000A101A201A30144
:100ECA0083160800F30083163808F7003708F6007F
:100EDA003608F5003508F400080073088312A700E5
:100EEA007208A6007108A5007008A400080023086B
:100EFA008316B800831222088316B70083122108CA
:100F0A008316B6008312200808003C088316A50041
:100F1A0083123D088316A60083123E088316A70093
:100F2A002E0808007007D600003003180130710738
:100F3A00D7005608D03E831608008312A0008316F5
:100F4A002F088312A100831630088312A20008001A
:100F5A008312AD0083162F088312AE008316300861
:100F6A008312AF0008008312D600D701D61BD7031D
:100F7A005708803AD800831608002008303ED70068
:100F8A0083163108840083125708080003133408B3
:100F9A008312D600D701D61BD7038316080025086B
:100FAA00F0002608F1002708F2000800831257080B
:100FBA000318013EFF3E831608002008A4002108FA
:100FCA00A5002208A60008008400303083138000A0
:100FDA00FF30B10A080000088312D600840A00080C
:100FEA00D70008008400203083138000B10A08006B
:060FFA008316031308003A
:101094008312D1006E305102031CD5280330F900AD
:1010A4000A30F5006430F00051086A210A128A15EA
:1010B4004F210A128A155B270A128A151C3E8400E6
:1010C4000A168A110A200A128A15AD000A168A1114
:1010D4000A200A128A15AE000A168A110A200A1278
:1010E4008A15AF000330F9006430F50051084F2130
:1010F4000A128A155B270A128A15373E84000A16DB
:101104008A110A200A128A15B0000A168A110A20C6
:101114000A128A15B1000A168A110A200A128A15BF
:10112400B2000A128A15EC260A128A1595210A12AF
:101134008A150330F9000A30F00051086A210A12B6
:101144008A155B270A128A15013E84000A168A1141
:101154000A200A128A15AD000A168A110A200A12F8
:101164008A15AE000A168A110A200A128A158D21E0
:101174000A128A15EC260A128A152D08CB002E08AD
:10118400CC002F08CD003F30AD01AE01AF004B08BD
:10119400B0004C08B1004D08B2000A128A15EC26C2
:1011A4000A128A1586290B305102031C292903309F
:1011B400F9000A30F00051086A210A128A155B27E7
:1011C4000A128A15013E84000A168A110A200A129C
:1011D4008A15AD000A168A110A200A128A15AE0071
:1011E4000A168A110A200A128A15AF000330F90080
:1011F4000A30F50051084F210A128A155B270A129A
:101204008A151C3E84000A168A110A200A128A15BD
:10121400B0000A168A110A200A128A15B1000A16A9
:101224008A110A200A128A15B2000A128A15EC26BB
:101234000A128A1595210A128A153F30AD01AE01B2
:101244008D210A128A15EC260A128A1586293F3046
:10125400AD01AE01AF000330F90051080A128A153E
:101264005B270A128A15013E84000A168A110A2095
:101274000A128A15B0000A168A110A200A128A155F
:10128400B1000A168A110A200A128A15B2000A123B
:101294008A15EC260A128A158629F600F8017508C3
:1012A40003196829F701F70AF51B5B290310F50DEB
:1012B40055290310F80D75087602031C6529750875
:1012C400F60278140310F50CF70B5B297808080074
:1012D400F2000830F300F4017208F1000730031043
:1012E400F10CFF3E0310031D7229740D7104F40008
:1012F4000310F20D70087402031C82297008F402B2
:10130400F30B6E29740808002D08C8002E08C900C4
:101314002F08CA000800AF004E08B0004F08B10003
:101324005008B20008002D08CE002E08CF002F0868
:10133400D00008008316031788018901C030031305
:101344008F000330850086010630870088018901FB
:10135400FC3092000C3083129D0097008030950081
:101364009B008C01073092008C08031DB62983165C
:101374008710071183120F30851305130512F0002F
:10138400F1010A168A1160260A128A1503308312A3
:10139400031388000A3005170513F000F1010A163B
:1013A4008A1160260A128A15831203130A3005175C
:1013B4000513F000F1010A168A1160260A128A1533
:1013C400831203130A3005170513F000F1010A16FE
:1013D4008A1160260A128A150230831203138800C8
:1013E4002830051705130A168A114E260A128A1583
:1013F4000C300A168A114E260A128A150A168A1108
:1014040027260A128A1506300A168A114E260A124F
:101414008A1583167030871707138F000C309900D4
:1014240090308312980020308316980003178701A8
:10143400F430F0000130F1000A168A1160260A1215
:101444008A150130831203138500FF3085000130B3
:101454008500FF3085000D300A128A113D200A12E2
:101464008A150A300A128A113D200A128A1561303F
:101474008316C900CA018316031349080A128A1184
:101484003D200A128A151430F000F1010A168A115F
:1014940060260A128A1583160313C90A0319CA0A95
:1014A4004A08803AFF0080307F02031D5B2A7B30AC
:1014B4004902031C3D2A0D300A128A113D200A12EA
:1014C4008A150A300A128A113D200A128A156430DC
:1014D400F000F1010A168A1160260A128A15831295
:1014E4000313860183167730CF018312D200B930FB
:1014F4000A128A1161200A128A15CB014B08B93EDF
:10150400840000080A128A113D200A128A158316E3
:101514001430CB0A4B02031C802AC830F000F101BE
:101524000A168A1160260A128A150D300A128A11C7
:101534003D200A128A150A300A128A113D200A1225
:101544008A1500300A168A11BE250A128A157730C8
:10155400F5008030F6000A168A1131260A128A151F
:101564000A128A1145200A128A1583128601B8309C
:10157400F0000B30F1000A168A1160260A128A154F
:101584001930831603134F020318902BC1308312B2
:101594009F009F149F18CC2A1E08950083161E08CE
:1015A4008312DB000310DB0C0310DB0C5B080C382C
:1015B40097001E088316D300D4010310D30DD40D55
:1015C4000310D30DD40D1E088312DB000630031064
:1015D400DB0CFF3E031DE92A5B088316D304283085
:1015E4008312AD00A030AE003B30AF008316540828
:1015F400F9005308F8000A128A159F240A128A1562
:1016040078088312B0007908B1007A08B2000A128F
:101614008A15EC260A128A152D088316D000831227
:101624002E088316D10083122F088316D200B030FF
:101634008312D200831650088312D30083165108F4
:101644008312D400831652088312D500D5300A12AF
:101654008A1161200A128A1540300A168A11BE25A1
:101664000A128A15B630F5008030F6000A168A117F
:1016740031260A128A15D530F500F6010A168A11A8
:1016840031260A128A159330D20083164F0883122A
:10169400D300D530D401D500B9300A128A116120A3
:1016A4000A128A15CC014C08B93E840000080A12BB
:1016B4008A113D200A128A1583160A30CC0A4C027C
:1016C400031C552B0D300A128A113D200A128A156B
:1016D4000A300A128A113D200A128A156430F00079
:1016E400F1010A168A1160260A128A158316031359
:1016F4004F08F4005308F50048080A168A11C52556
:101704000A128A151430F000F1010A168A116026B3
:101714000A128A1583160313CF0AC22ACF010A16A6
:101724008A1127260A128A1500300A168A11BE2544
:101734000A128A159E30F5008030F6000A168A11C6
:1017440031260A128A158630D200B9300A128A115B
:1017540061200A128A15CD014D08B93E84000008A3
:101764000A128A113D200A128A1583160A30CD0AFC
:101774004D02031CAE2BC830F000F1010A168A1189
:1017840060260A128A150D300A128A113D200A12A7
:101794008A150A300A128A113D200A128A15193054
:1017A40083164F0203189C2C40300A168A11BE255A
:1017B4000A128A1583164F08F10048080A168A117E
:1017C400E0250A128A1540300A168A11BE250A122B
:1017D4008A1583164F08F10048080A168A11E02575
:1017E4000A128A15D3001430D401F000F1010A164C
:1017F4008A1160260A128A15283083120313AD0059
:10180400A030AE003B30AF0083165408F9005308F3
:10181400F8000A128A159F240A128A15780883127E
:10182400B0007908B1007A08B2000A128A15EC26D1
:101834000A128A152D088316D00083122E088316E7
:10184400D10083122F088316D200B0308312D20045
:10185400831650088312D300831651088312D400D0
:10186400831652088312D500D5300A128A116120DA
:101874000A128A1540300A168A11BE250A128A15E0
:10188400B630F5008030F6000A168A1131260A12A5
:101894008A15D530F500F6010A168A1131260A1286
:1018A4008A156430F000F1010A168A1160260A12C2
:1018B4008A15933083120313D20083164F088312C0
:1018C400D300D530D401D500B9300A128A11612071
:1018D4000A128A15CE014E08B93E840000080A1285
:1018E4008A113D200A128A1583160A30CE0A4E0246
:1018F400031C6D2CC830F000F1010A168A11602611
:101904000A128A150D300A128A113D200A128A150C
:101914000A300A128A113D200A128A156430F00036
:10192400F1010A168A1160260A128A158316031316
:10193400CF0AD12B0A128A110028FB01F91FA92C06
:10194400F809F909F80A0319F90AFB01FB0A7808EE
:10195400F0007908F1008E30F201F3007B08F40006
:1019640069277008F8007108F9007208FA00080085
:101974008E30FC00FF307B050319C72C0310FB0CD1
:10198400FA0CF90CF80CFC0ABC2C7808F000790865
:10199400F1007A08F2007C08F300F401692770086A
:1019A400F8007108F9007208FA0008008312C600F2
:1019B400C61FA42DC609C60A4608803A123E031C57
:1019C400482D0A30CB270A128A15AF260A128A1527
:1019D4007108F9007008F8006A260A128A15E027CF
:1019E4001C3E84000A168A110A200A128A15AD00C8
:1019F4000A168A110A200A128A15AE000A168A11DA
:101A04000A200A128A15F0270A128A15F81BF9030C
:101A14006A260A128A15BC27373E84000A168A11E0
:101A24000A200A128A15B0000A168A110A200A121C
:101A34008A15B1000A168A110A200A128A15B20000
:101A4400EC260A128A15A7270A128A15F21BF30339
:101A5400AF260A128A15B427013E84000A168A1199
:101A64000A200A128A15AD000A168A110A200A12DF
:101A74008A15AE000A168A110A200A128A15E82766
:101A84000A128A15EC260A128A15C42F4608803ACF
:101A9400753E031C8D2D0A30F000F1014608F2005A
:101AA400F301F21BF303AF260A128A15B427013E91
:101AB40084000A168A110A200A128A15AD000A1631
:101AC4008A110A200A128A15AE000A168A110A20FF
:101AD4000A128A15F8270A128A15F81BF9036A26CE
:101AE4000A128A15BC271C3E84000A168A110A2091
:101AF4000A128A15B0000A168A110A200A128A15D7
:101B0400B1000A168A110A200A128A15B200EC26BC
:101B14000A128A15C42F0330F90046085B27013ED8
:101B240084000A168A110A200A128A15BC000A16B1
:101B34008A110A200A128A15BD000A168A110A207F
:101B4400BE0008004608803A123E031C0E2E0A30DE
:101B5400CB270A128A15AF260A128A157108F900D2
:101B64007008F8006A260A128A15E027433E8400AA
:101B74000A168A110A200A128A15AD000A168A1159
:101B84000A200A128A15AE000A168A110A200A12BD
:101B94008A15F0270A128A15F81BF9036A260A1215
:101BA4008A15BC275E3E84000A168A110A200A128E
:101BB4008A15B0000A168A110A200A128A15B10081
:101BC4000A168A110A200A128A15B200EC260A1291
:101BD4008A15A7270A128A15F21BF303AF260A12E5
:101BE4008A15B427283E84000A168A110A200A128C
:101BF4008A15AD000A168A110A200A128A15AE0047
:101C04000A168A110A200A128A15E8270A128A1566
:101C1400EC260A128A15C42F4608803A753E031C26
:101C2400532E0A30F000F1014608F200F301F21BD2
:101C3400F303AF260A128A15B427283E84000A1635
:101C44008A110A200A128A15AD000A168A110A207E
:101C54000A128A15AE000A168A110A200A128A1577
:101C6400F8270A128A15F81BF9036A260A128A153C
:101C7400BC27433E84000A168A110A200A128A15D8
:101C8400B0000A168A110A200A128A15B1000A162F
:101C94008A110A200A128A15B200EC260A128A1541
:101CA400C42F0330F90046085B27283E84000A1637
:101CB4008A110A200A128A15BC000A168A110A20FF
:101CC4000A128A15BD000A168A110A20BE000800ED
:101CD400FB01F71F742EF609F709F60A0319F70A30
:101CE400FB01FB0AF91F7D2EF809F909F80A03190B
:101CF400F90A0130FB06FC01FD017708760403199B
:101D0400A22EFA01FA0AF71B8B2E0310F60DF70D1B
:101D1400842E0310FC0DFD0D77087902031D942E0B
:101D240076087802031C9E2E7608F8027708031CB6
:101D3400F903F9027C140310F70CF60CFA0B8B2E42
:101D44007B080319AA2EFC09FD09FC0A0319FD0AE4
:101D54007D08F7007C08F6000800F501F31FB92E92
:101D6400F209F309F20A0319F30AF501F50AF11F5E
:101D7400C02EF009F109F00A0319F10A7108700480
:101D84000319DF2EF401F40AF11BCC2E0310F00D1D
:101D9400F10DC52E71087302031DD22E7008720254
:101DA400031CDB2E7008F2027108031CF303F30218
:101DB4000310F10CF00CF40BCC2E75080319E72E6C
:101DC400F209F309F20A0319F30A7308F10072081D
:101DD400F00008002D08B3002E08B4002F08B50049
:101DE4000310340D350DB600B608031DFD2EAD01EC
:101DF400AE01AF0108003008B3003108B400320866
:101E0400B5000310340D350DBB00BB08031D0E2FA8
:101E1400AD01AE01AF0108003B087B3EB6072F08B9
:101E2400BB003208BB068030BB050730AE17B117C4
:101E3400B201B701B801B901BA002D1C292F30082D
:101E4400D6270A128A150318320A031DB90703108C
:101E5400AF0CAE0CAD0C0310B00DB10DB20DBA0B3E
:101E64001F2F0930BA002D1C3F2F3008D6270A1225
:101E74008A150318320A031DB9070310AF0CAE0C00
:101E8400AD0C0310B90CB80CB70CBA0B352F3708CE
:101E9400F0003808F1003908F2003608F3003B0876
:101EA400F40069277008AD007108AE007208AF0035
:101EB4000800FB00FA0179087B18FA070310F90DF2
:101EC4000310FB0CFB08031D5D2F7A080800730840
:101ED4000319712F720871047004031D7A2FF00125
:101EE400F101F2010800F30A0310F20CF10CF00CFA
:101EF400FE3072050319892F752FF30AF00A0319AE
:101F0400F10A0319F20A0310F20CF10CF00CFF3081
:101F140072050319932F7F2FF3030310F00DF10DB6
:101F2400F20DF11F8E2F731CF1130310F30C7308C1
:101F3400F700F601F5017508F0047608F104770856
:101F4400F2047408031DF21708002D08C3002E08BC
:101F5400C4002F08C5000A30F000F1014608F20061
:101F6400F30108007008BF007108C0003F083F0774
:101F74003F0708007608C1007708C20041084107FE
:101F8400410708002D08BC002E08BD002F08BE0024
:101F94000800F600F7014608F200F301F21BF30310
:101FA4006430F000F1010800B70731080311031889
:101FB400310A031DB8073208031108007608BF0070
:101FC4007708C0003F083F073F070800AF004308F9
:101FD400B0004408B1004508B2000800AF00643006
:101FE400F600F7014608F800F9010800AF000A30CE
:101FF400F600F7014608F800F9010800FF1B0A285B
:1020040083137F1883170008840A0319FF0A080042
:1020140010308A000408840A8207003400348034B3
:102024003F34CD34CC343D34D73423343C341234AF
:1020340083343A34B734D1343834C634273437345B
:10204400383486343534C034D6343334CC342B3439
:102054003234703489343034E734DB342E34E534AC
:102064003C341E344234A2340D34003480343F34C2
:102074000034203441340034C834423400347A34D7
:10208400443440341C3446345034C3344734243448
:1020940074344934973418344B34BC34BE344C341F
:1020A4006B346E344E340334153450347934AD34D7
:1020B4006034F3344934713401340034003400346E
:1020C4000A340034003400346434003400340034FE
:1020D400E83403340034003410342734003400343A
:1020E400A034863401340034403442340F34003494
:1020F40080349634983400340034E134F5340534B3
:102104000034CA349A343B344534733463347234FF
:1021140069346234693465346E3464346F342E3413
:102124002E342E3400344C346534793465346E34B2
:1021340064346F342E342E342E342E342034003450
:1021440056342534693420343A34203425347334F5
:102154002034203400344C346534793465346E349E
:1021640064346F342E342E342E34003428346E34D8
:1021740075346C346C3429340034253431342E34C1
:0E218400333466340034563431343A34003487
:102A8C007008F6007108F7007208F8000310770D53
:102A9C00780D8312A500A508031D592DF001F10135
:102AAC00F201F30108007308F6007408F7007508CA
:102ABC00F8000310770D780DA400A4080319542D09
:102ACC007F30F117F201F417F501A001A101A20169
:102ADC00A301A50298302407F600A5021830A40023
:102AEC000310A00DA10DA20DA30D75087202031DFC
:102AFC00852D74087102031D852D73087002031C4B
:102B0C00932D7308F0027408031C740FF1027508FE
:102B1C00031C750AF20220140310F00DF10DF20DD6
:102B2C00A40B762DA51FA72D2508803A973E031CD4
:102B3C00542D0310A30CA20CA10CA00CA50F9F2DBF
:102B4C00B52D183025020318542DA5080319B52DE1
:102B5C000310A00DA10DA20DA30DA503AB2D2308F1
:102B6C00F3002208F2002108F1002008F000080010
:102B7C00F5008312031385137508803E4E2EF60064
:102B8C0009260A168A11A03001260A168A1176081F
:102B9C0001260A168A11740801260A168A1175086C
:102BAC0001260A168A110D260A168A110B30F0001E
:102BBC00F101602EF20009260A168A11A0300126B6
:102BCC000A168A11720801260A168A117108012642
:102BDC000A168A1112260A168A11A13001260A1623
:102BEC008A1117260A168A11F3001F260A168A1153
:102BFC000D2673080800F00083128C1170089300E6
:102C0C008C190800062E1114111C08000A2E8316AC
:102C1C001115111D08000F2E83169114911C08001C
:102C2C00142E8C118316911583128C1D1A2E1308D9
:102C3C0008008C1183169116111683128C1908003A
:102C4C00232E8312013085134E260A168A11023068
:102C5C00F000F101602E85177608FF0075088400DE
:102C6C000A168A1100200A168A1100380319080066
:102C7C007608FF00750884000A168A1100200A16CF
:102C8C008A114E260A168A11F50A0319F60A322EF3
:102C9C00F400F001F00AF1016026740E0F39831272
:102CAC00031388000517051374080F3988000517DE
:102CBC0005130800F201F30173087102031D682E5D
:102CCC0072087002031C080071260A168A11F20A97
:102CDC000319F30A622E01308316031381000D30A1
:102CEC00831281000B1D782E0B11080070303127D8
:102CFC000A168A110310780D790D83120313A5009F
:102D0C00A508031D8E2EF001F101F201F30108005C
:102D1C00733031270A168A110310780D790DA4002F
:102D2C00A4080319892E703084008030840A840A28
:102D3C0080047030840A84007330840A840A840A04
:102D4C00800184008030840A840A80047330840AF1
:102D5C0084007F30840A840A840A8001A001A101C6
:102D6C00A201A301A502A0302407F600A502203081
:102D7C00A40073300310A00DA10DA20DA30D3127DB
:102D8C000A168A11703084000008FA00840A0008C0
:102D9C00FB00840A0008FC00840A0008FD00790886
:102DAC007D02031DE32E78087C02031DE32E7708B9
:102DBC007B02031DE32E76087A02031CFF2E733070
:102DCC0031270A168A117030840076088002840A32
:102DDC007708031C770F8002840A7808031C780F8D
:102DEC008002840A7908031C790A80020330840269
:102DFC002014703084000310800D840A800D840A26
:102E0C00800D840A800DA40BBF2EA51F1A2F250838
:102E1C00803A9F3E031C892E0310A30CA20CA10C1C
:102E2C00A00CA50F122F282F203025020318892E55
:102E3C00A5080319282F0310A00DA10DA20DA30D99
:102E4C00A5031E2F2308F3002208F2002108F1002D
:102E5C002008F000080084000008F600840A00082E
:102E6C00F700840A0008F800840A0008F90008003A
:102E7C003C08C2003D08C3003E08C4000310430DCB
:102E8C00440DC7003F08C2004008C3004108C400FD
:102E9C000310430D440DC60047080319612F460863
:102EAC00470246080318692FC2004708C2021930AE
:102EBC004202031C682F3F08BC004008BD004108BB
:102ECC00BE0008004608031908004708460203180C
:102EDC00772F4708C2004608C20219304202031875
:102EEC0008000630C500BE1BC517C11B4517BD1712
:102EFC00BE01C017C1014608470203189E2F0310DC
:102F0C00BF0DC00DC10DC603460847060319992F06
:102F1C00C503450807390319992F852F0310BE0CDB
:102F2C00BD0CBC0CC70A470846060319BA2F942FD0
:102F3C00470846020318BA2F0310BC0DBD0DBE0D79
:102F4C00C703460847060319B62FC50345080739BA
:102F5C000319B62FA22F0310C10CC00CBF0CC60A4C
:102F6C0047084606031DB12FC51FC52FFF30BC06F1
:102F7C00BD06BE06BC0A0319BD0A0319BE0A451FCD
:102F8C00D02FFF30BF06C006C106BF0A0319C00A06
:102F9C000319C10AC5013C08BF073D0803110318FA
:102FAC003D0A031DC0073E08031103183E0A031D0A
:102FBC00C107C11FEC2FFF30BF06C006C106BF0AF8
:102FCC000319C00A0319C10AC501C50A3F08F0005C
:102FDC004008F1004108F2004708F3004508F400EE
:102FEC000A128A1569277008BC007108BD007208A6
:042FFC00BE0008000B
:04400E00D4E8FFFFF4
:00000001FF
